{
  "contractName": "RevocationService",
  "abi": [
    {
      "inputs": [],
      "stateMutability": "nonpayable",
      "type": "constructor"
    },
    {
      "anonymous": false,
      "inputs": [
        {
          "indexed": false,
          "internalType": "uint256[]",
          "name": "_mtIndexes",
          "type": "uint256[]"
        },
        {
          "indexed": false,
          "internalType": "bytes1",
          "name": "_mtValue1",
          "type": "bytes1"
        },
        {
          "indexed": false,
          "internalType": "bytes1",
          "name": "_mtValue2",
          "type": "bytes1"
        },
        {
          "indexed": false,
          "internalType": "bytes1",
          "name": "_mtValue3",
          "type": "bytes1"
        },
        {
          "indexed": false,
          "internalType": "bytes1",
          "name": "_mtValue4",
          "type": "bytes1"
        }
      ],
      "name": "Issue",
      "type": "event"
    },
    {
      "anonymous": false,
      "inputs": [
        {
          "indexed": false,
          "internalType": "bytes32",
          "name": "merkleRoot",
          "type": "bytes32"
        },
        {
          "indexed": false,
          "internalType": "bytes32",
          "name": "vcLeaf",
          "type": "bytes32"
        },
        {
          "indexed": false,
          "internalType": "bytes32[]",
          "name": "proof",
          "type": "bytes32[]"
        }
      ],
      "name": "VerificationPhase2",
      "type": "event"
    },
    {
      "inputs": [
        {
          "internalType": "uint256",
          "name": "",
          "type": "uint256"
        }
      ],
      "name": "bloomFilter",
      "outputs": [
        {
          "internalType": "bool",
          "name": "",
          "type": "bool"
        }
      ],
      "stateMutability": "view",
      "type": "function",
      "constant": true
    },
    {
      "inputs": [
        {
          "internalType": "uint256",
          "name": "",
          "type": "uint256"
        }
      ],
      "name": "isExistInMTAccumulator",
      "outputs": [
        {
          "internalType": "bool",
          "name": "",
          "type": "bool"
        }
      ],
      "stateMutability": "view",
      "type": "function",
      "constant": true
    },
    {
      "inputs": [],
      "name": "merkleRoot",
      "outputs": [
        {
          "internalType": "string",
          "name": "",
          "type": "string"
        }
      ],
      "stateMutability": "view",
      "type": "function",
      "constant": true
    },
    {
      "inputs": [
        {
          "internalType": "uint256",
          "name": "",
          "type": "uint256"
        }
      ],
      "name": "merkleTree",
      "outputs": [
        {
          "internalType": "string",
          "name": "",
          "type": "string"
        }
      ],
      "stateMutability": "view",
      "type": "function",
      "constant": true
    },
    {
      "inputs": [],
      "name": "numberOfHashFunctions",
      "outputs": [
        {
          "internalType": "uint256",
          "name": "",
          "type": "uint256"
        }
      ],
      "stateMutability": "view",
      "type": "function",
      "constant": true
    },
    {
      "inputs": [],
      "name": "registerIssuers",
      "outputs": [],
      "stateMutability": "nonpayable",
      "type": "function"
    },
    {
      "inputs": [
        {
          "internalType": "uint256[]",
          "name": "_mtIndexes",
          "type": "uint256[]"
        },
        {
          "internalType": "string[]",
          "name": "_mtValues",
          "type": "string[]"
        }
      ],
      "name": "issueVC",
      "outputs": [],
      "stateMutability": "nonpayable",
      "type": "function"
    },
    {
      "inputs": [
        {
          "internalType": "uint256[4]",
          "name": "_bfIndexes",
          "type": "uint256[4]"
        },
        {
          "internalType": "uint256[]",
          "name": "_mtIndexes",
          "type": "uint256[]"
        },
        {
          "internalType": "string[]",
          "name": "_mtValues",
          "type": "string[]"
        }
      ],
      "name": "revokeVC",
      "outputs": [],
      "stateMutability": "nonpayable",
      "type": "function"
    },
    {
      "inputs": [
        {
          "internalType": "uint256[4]",
          "name": "_indexes",
          "type": "uint256[4]"
        }
      ],
      "name": "updateBloomFilter",
      "outputs": [],
      "stateMutability": "nonpayable",
      "type": "function"
    },
    {
      "inputs": [
        {
          "internalType": "uint256[]",
          "name": "_indexes",
          "type": "uint256[]"
        },
        {
          "internalType": "string[]",
          "name": "_values",
          "type": "string[]"
        }
      ],
      "name": "updateMerkleTree",
      "outputs": [],
      "stateMutability": "nonpayable",
      "type": "function"
    },
    {
      "inputs": [
        {
          "internalType": "uint256[4]",
          "name": "_bfIndexes",
          "type": "uint256[4]"
        }
      ],
      "name": "verificationPhase1",
      "outputs": [
        {
          "internalType": "bool",
          "name": "",
          "type": "bool"
        }
      ],
      "stateMutability": "view",
      "type": "function",
      "constant": true
    },
    {
      "inputs": [
        {
          "internalType": "uint256[4]",
          "name": "_indexes",
          "type": "uint256[4]"
        }
      ],
      "name": "checkRevocationStatusInBloomFilter",
      "outputs": [
        {
          "internalType": "bool",
          "name": "",
          "type": "bool"
        }
      ],
      "stateMutability": "view",
      "type": "function",
      "constant": true
    },
    {
      "inputs": [],
      "name": "verificationPhase2",
      "outputs": [
        {
          "internalType": "string",
          "name": "",
          "type": "string"
        }
      ],
      "stateMutability": "view",
      "type": "function",
      "constant": true
    },
    {
      "inputs": [],
      "name": "verificationPhase2Test",
      "outputs": [
        {
          "internalType": "string",
          "name": "",
          "type": "string"
        }
      ],
      "stateMutability": "nonpayable",
      "type": "function"
    },
    {
      "inputs": [
        {
          "internalType": "uint256",
          "name": "index",
          "type": "uint256"
        },
        {
          "internalType": "string",
          "name": "value",
          "type": "string"
        }
      ],
      "name": "updateNode",
      "outputs": [],
      "stateMutability": "nonpayable",
      "type": "function"
    },
    {
      "inputs": [],
      "name": "printMerkleTree",
      "outputs": [],
      "stateMutability": "view",
      "type": "function",
      "constant": true
    }
  ],
  "bytecode": "0x608060405234801561001057600080fd5b5033600560006101000a81548173ffffffffffffffffffffffffffffffffffffffff021916908373ffffffffffffffffffffffffffffffffffffffff160217905550611704806100616000396000f3fe608060405234801561001057600080fd5b50600436106101005760003560e01c8063376a659011610097578063bbb7e2ef11610066578063bbb7e2ef14610285578063cc70dd15146102a3578063d3e53042146102d3578063e5440a9b146102dd57610100565b8063376a6590146101ff57806348db53361461021d57806353491af51461024d57806392ed770e1461026957610100565b80632eb4a7ab116100d35780632eb4a7ab146101795780632ef76b1814610197578063309ddb30146101b357806334d6c77f146101e357610100565b80630de54b85146101055780630df0ff901461010f57806317a304921461013f5780632337db351461015b575b600080fd5b61010d61030d565b005b61012960048036038101906101249190611231565b61030f565b604051610136919061132c565b60405180910390f35b61015960048036038101906101549190611101565b6103af565b005b61016361046e565b604051610170919061132c565b60405180910390f35b610181610511565b60405161018e919061132c565b60405180910390f35b6101b160048036038101906101ac91906111b9565b61059f565b005b6101cd60048036038101906101c89190611101565b6107a5565b6040516101da9190611311565b60405180910390f35b6101fd60048036038101906101f891906111b9565b6107b7565b005b61020761081f565b6040516102149190611393565b60405180910390f35b61023760048036038101906102329190611231565b610824565b6040516102449190611311565b60405180910390f35b6102676004803603810190610262919061125e565b610844565b005b610283600480360381019061027e919061112e565b6108ca565b005b61028d61093c565b60405161029a919061132c565b60405180910390f35b6102bd60048036038101906102b89190611101565b6109df565b6040516102ca9190611311565b60405180910390f35b6102db610a5b565b005b6102f760048036038101906102f29190611231565b610bb8565b6040516103049190611311565b60405180910390f35b565b6001602052806000526040600020600091509050805461032e906114f6565b80601f016020809104026020016040519081016040528092919081815260200182805461035a906114f6565b80156103a75780601f1061037c576101008083540402835291602001916103a7565b820191906000526020600020905b81548152906001019060200180831161038a57829003601f168201915b505050505081565b600560009054906101000a900473ffffffffffffffffffffffffffffffffffffffff1673ffffffffffffffffffffffffffffffffffffffff163373ffffffffffffffffffffffffffffffffffffffff161461040957600080fd5b60005b600481101561046a57600160008084846004811061042d5761042c611600565b5b6020020151815260200190815260200160002060006101000a81548160ff021916908315150217905550808061046290611559565b91505061040c565b5050565b606060016000808152602001908152602001600020805461048e906114f6565b80601f01602080910402602001604051908101604052809291908181526020018280546104ba906114f6565b80156105075780601f106104dc57610100808354040283529160200191610507565b820191906000526020600020905b8154815290600101906020018083116104ea57829003601f168201915b5050505050905090565b6002805461051e906114f6565b80601f016020809104026020016040519081016040528092919081815260200182805461054a906114f6565b80156105975780601f1061056c57610100808354040283529160200191610597565b820191906000526020600020905b81548152906001019060200180831161057a57829003601f168201915b505050505081565b600560009054906101000a900473ffffffffffffffffffffffffffffffffffffffff1673ffffffffffffffffffffffffffffffffffffffff163373ffffffffffffffffffffffffffffffffffffffff16146105f957600080fd5b805182511461060757600080fd5b60005b82518110156106825781818151811061062657610625611600565b5b60200260200101516001600085848151811061064557610644611600565b5b60200260200101518152602001908152602001600020908051906020019061066e929190610d56565b50808061067a90611559565b91505061060a565b5060005b82518110156107735760001515600460008584815181106106aa576106a9611600565b5b6020026020010151815260200190815260200160002060009054906101000a900460ff1615151415610760576001600460008584815181106106ef576106ee611600565b5b6020026020010151815260200190815260200160002060006101000a81548160ff021916908315150217905550600383828151811061073157610730611600565b5b602002602001015190806001815401808255809150506001900390600052602060002001600090919091909150555b808061076b90611559565b915050610686565b50600160008081526020019081526020016000206002908054610795906114f6565b6107a0929190610ddc565b505050565b60006107b0826109df565b9050919050565b600560009054906101000a900473ffffffffffffffffffffffffffffffffffffffff1673ffffffffffffffffffffffffffffffffffffffff163373ffffffffffffffffffffffffffffffffffffffff161461081157600080fd5b61081b828261059f565b5050565b600481565b60006020528060005260406000206000915054906101000a900460ff1681565b600560009054906101000a900473ffffffffffffffffffffffffffffffffffffffff1673ffffffffffffffffffffffffffffffffffffffff163373ffffffffffffffffffffffffffffffffffffffff161461089e57600080fd5b806001600084815260200190815260200160002090805190602001906108c5929190610d56565b505050565b600560009054906101000a900473ffffffffffffffffffffffffffffffffffffffff1673ffffffffffffffffffffffffffffffffffffffff163373ffffffffffffffffffffffffffffffffffffffff161461092457600080fd5b61092d836103af565b610937828261059f565b505050565b606060016000808152602001908152602001600020805461095c906114f6565b80601f0160208091040260200160405190810160405280929190818152602001828054610988906114f6565b80156109d55780601f106109aa576101008083540402835291602001916109d5565b820191906000526020600020905b8154815290600101906020018083116109b857829003601f168201915b5050505050905090565b6000806000905060005b6004811015610a515760001515600080868460048110610a0c57610a0b611600565b5b6020020151815260200190815260200160002060009054906101000a900460ff1615151415610a3e5760019150610a51565b8080610a4990611559565b9150506109e9565b5080915050919050565b60011515600115151415610aa857610aa76040518060400160405280601381526020017f70726974696e67206d65726b6c65207472656500000000000000000000000000815250610bd8565b5b60005b600380549050811015610bb55760011515600115151415610ba257610ba16040518060400160405280601781526020017f696e646578203a20256420092076616c7565203a20257300000000000000000081525082600160008581526020019081526020016000208054610b1e906114f6565b80601f0160208091040260200160405190810160405280929190818152602001828054610b4a906114f6565b8015610b975780601f10610b6c57610100808354040283529160200191610b97565b820191906000526020600020905b815481529060010190602001808311610b7a57829003601f168201915b5050505050610c71565b5b8080610bad90611559565b915050610aab565b50565b60046020528060005260406000206000915054906101000a900460ff1681565b610c6e81604051602401610bec919061132c565b6040516020818303038152906040527f41304fac000000000000000000000000000000000000000000000000000000007bffffffffffffffffffffffffffffffffffffffffffffffffffffffff19166020820180517bffffffffffffffffffffffffffffffffffffffffffffffffffffffff8381831617835250505050610d10565b50565b610d0b838383604051602401610c899392919061134e565b6040516020818303038152906040527f5970e089000000000000000000000000000000000000000000000000000000007bffffffffffffffffffffffffffffffffffffffffffffffffffffffff19166020820180517bffffffffffffffffffffffffffffffffffffffffffffffffffffffff8381831617835250505050610d10565b505050565b610d2781610d1f610d2a610d4b565b63ffffffff16565b50565b60006a636f6e736f6c652e6c6f679050600080835160208501845afa505050565b610e69819050919050565b828054610d62906114f6565b90600052602060002090601f016020900481019282610d845760008555610dcb565b82601f10610d9d57805160ff1916838001178555610dcb565b82800160010185558215610dcb579182015b82811115610dca578251825591602001919060010190610daf565b5b509050610dd89190610e73565b5090565b828054610de8906114f6565b90600052602060002090601f016020900481019282610e0a5760008555610e58565b82601f10610e1b5780548555610e58565b82800160010185558215610e5857600052602060002091601f016020900482015b82811115610e57578254825591600101919060010190610e3c565b5b509050610e659190610e73565b5090565b610e7161165e565b565b5b80821115610e8c576000816000905550600101610e74565b5090565b6000610ea3610e9e846113d3565b6113ae565b90508083825260208201905082856020860282011115610ec657610ec5611692565b5b60005b85811015610f1457813567ffffffffffffffff811115610eec57610eeb61168d565b5b808601610ef989826110be565b85526020850194506020840193505050600181019050610ec9565b5050509392505050565b6000610f31610f2c846113ff565b6113ae565b90508082856020860282011115610f4b57610f4a611692565b5b60005b85811015610f7b5781610f6188826110ec565b845260208401935060208301925050600181019050610f4e565b5050509392505050565b6000610f98610f9384611425565b6113ae565b90508083825260208201905082856020860282011115610fbb57610fba611692565b5b60005b85811015610feb5781610fd188826110ec565b845260208401935060208301925050600181019050610fbe565b5050509392505050565b600061100861100384611451565b6113ae565b90508281526020810184848401111561102457611023611697565b5b61102f8482856114b4565b509392505050565b600082601f83011261104c5761104b61168d565b5b813561105c848260208601610e90565b91505092915050565b600082601f83011261107a5761107961168d565b5b6004611087848285610f1e565b91505092915050565b600082601f8301126110a5576110a461168d565b5b81356110b5848260208601610f85565b91505092915050565b600082601f8301126110d3576110d261168d565b5b81356110e3848260208601610ff5565b91505092915050565b6000813590506110fb816116b7565b92915050565b600060808284031215611117576111166116a1565b5b600061112584828501611065565b91505092915050565b600080600060c08486031215611147576111466116a1565b5b600061115586828701611065565b935050608084013567ffffffffffffffff8111156111765761117561169c565b5b61118286828701611090565b92505060a084013567ffffffffffffffff8111156111a3576111a261169c565b5b6111af86828701611037565b9150509250925092565b600080604083850312156111d0576111cf6116a1565b5b600083013567ffffffffffffffff8111156111ee576111ed61169c565b5b6111fa85828601611090565b925050602083013567ffffffffffffffff81111561121b5761121a61169c565b5b61122785828601611037565b9150509250929050565b600060208284031215611247576112466116a1565b5b6000611255848285016110ec565b91505092915050565b60008060408385031215611275576112746116a1565b5b6000611283858286016110ec565b925050602083013567ffffffffffffffff8111156112a4576112a361169c565b5b6112b0858286016110be565b9150509250929050565b6112c38161149e565b82525050565b60006112d482611482565b6112de818561148d565b93506112ee8185602086016114c3565b6112f7816116a6565b840191505092915050565b61130b816114aa565b82525050565b600060208201905061132660008301846112ba565b92915050565b6000602082019050818103600083015261134681846112c9565b905092915050565b6000606082019050818103600083015261136881866112c9565b90506113776020830185611302565b818103604083015261138981846112c9565b9050949350505050565b60006020820190506113a86000830184611302565b92915050565b60006113b86113c9565b90506113c48282611528565b919050565b6000604051905090565b600067ffffffffffffffff8211156113ee576113ed61162f565b5b602082029050602081019050919050565b600067ffffffffffffffff82111561141a5761141961162f565b5b602082029050919050565b600067ffffffffffffffff8211156114405761143f61162f565b5b602082029050602081019050919050565b600067ffffffffffffffff82111561146c5761146b61162f565b5b611475826116a6565b9050602081019050919050565b600081519050919050565b600082825260208201905092915050565b60008115159050919050565b6000819050919050565b82818337600083830152505050565b60005b838110156114e15780820151818401526020810190506114c6565b838111156114f0576000848401525b50505050565b6000600282049050600182168061150e57607f821691505b60208210811415611522576115216115d1565b5b50919050565b611531826116a6565b810181811067ffffffffffffffff821117156115505761154f61162f565b5b80604052505050565b6000611564826114aa565b91507fffffffffffffffffffffffffffffffffffffffffffffffffffffffffffffffff821415611597576115966115a2565b5b600182019050919050565b7f4e487b7100000000000000000000000000000000000000000000000000000000600052601160045260246000fd5b7f4e487b7100000000000000000000000000000000000000000000000000000000600052602260045260246000fd5b7f4e487b7100000000000000000000000000000000000000000000000000000000600052603260045260246000fd5b7f4e487b7100000000000000000000000000000000000000000000000000000000600052604160045260246000fd5b7f4e487b7100000000000000000000000000000000000000000000000000000000600052605160045260246000fd5b600080fd5b600080fd5b600080fd5b600080fd5b600080fd5b6000601f19601f8301169050919050565b6116c0816114aa565b81146116cb57600080fd5b5056fea264697066735822122049437700bd2f1f3ce5e5dedd75700f44c0f05d8801bf6308a426ca9d1ec7417064736f6c63430008070033",
  "immutableReferences": {},
  "source": "//SPDX-License-Identifier: MIT\n\npragma solidity ^0.8.7;\nimport \"./console.sol\";\nimport \"./MerkleProof.sol\";\n\ncontract RevocationService{\n\n    bool private constant DEBUG = true;\n\n    // bloom filter\n    uint public constant numberOfHashFunctions = 4;\n    // const private numberofVCs = 10000;\n\n    // // BF size is set for 10% false positive\n    // const private bfSize = 50000;\n\n    // storing bloom filters as maps\n    mapping(uint256=>bool) public bloomFilter;\n\n\n    /*\n    merkle tree\n    stores entries in level order\n    root is stored at index 0.\n    */\n    mapping(uint => string) public merkleTree;\n\n    string public merkleRoot;\n\n    // stores the list of indexes present in the merkle tree.\n    uint[] private indexes;\n    mapping (uint => bool) public isExistInMTAccumulator;\n\n    // issuer is the owner of the contract\n    address issuer;\n\n\n    event Issue(uint[]  _mtIndexes, bytes1  _mtValue1, bytes1  _mtValue2, bytes1  _mtValue3, bytes1  _mtValue4);\n    event VerificationPhase2(bytes32 merkleRoot, bytes32 vcLeaf, bytes32[] proof);\n    // sets the issuer - contract creator is the issuer\n    constructor(){\n        issuer = msg.sender;\n    }\n\n    /*\n    This function is used to register new issuers.\n    Register did of issuers and public keys. (maybe in the form of DID Docs).\n    input: did doc\n    */\n    function registerIssuers() public{\n\n    }\n\n\n    /*\n    This function is used to set proofs at merkle tree accumulator when one or more VC is issued.\n    The merkle tree stores hash of VCs in leaves. Arrays using Level order structure is used to store the merkle tree.\n    Every time new VC is issued, update the array.\n\n\n    Note: The logic for mapping VCs to level order indexes should be done at the issuers side.\n    */\n    function issueVC(uint[] memory _mtIndexes, string[] memory _mtValues) public{\n        //only issuer can perform the revocation\n        require(msg.sender==issuer);\n\n        updateMerkleTree(_mtIndexes, _mtValues);\n    }\n\n    /*\n    Revokes a VC by updating bloom filter and merkle tree accumulator.\n\n    Inputs:\n        _bfIndexes: bloom filter indexes that needs to be set\n        _mtIndexes: merkle tree indexes that needs to be updated\n        _mtValues:  merkle tree values corresponding to the indexes.\n\n    Operations:\n        Bloom filter: sets the indexes at bloomfilter to 1\n        merkle tree accumulator: update the merkle tree. since we only store 'k' levels, not all revocations might require update of\n        merkle tree. if merkle tree doesn't require update, then index to -1\n\n    Note: set merkle tree to -1 if it is not required to update merkle tree.\n    */\n    function revokeVC(uint256[numberOfHashFunctions] memory _bfIndexes, uint[] memory _mtIndexes, string[] memory _mtValues) public{\n        //only issuer can perform the revocation\n        require(msg.sender==issuer);\n\n        updateBloomFilter(_bfIndexes);\n        updateMerkleTree(_mtIndexes, _mtValues);\n\n    }\n\n\n\n    function updateBloomFilter(uint256[numberOfHashFunctions] memory _indexes) public{\n\n        //only issuer can perform the revocation\n        require(msg.sender==issuer);\n\n        // sets the indexes to true\n        for (uint i = 0; i < _indexes.length; i++) {\n            bloomFilter[_indexes[i]] = true;\n        }\n    }\n\n\n    // updates the merkle tree values in the speicified indexes\n    function updateMerkleTree(uint[] memory _indexes, string[] memory _values) public {\n\n        //only own can replace merkle tree\n        require(msg.sender==issuer);\n\n        // indexes and values should have same number of entries\n        require(_indexes.length==_values.length);\n\n\n        // update the merkle tree\n        for (uint i = 0; i < _indexes.length; i++) {\n            merkleTree[_indexes[i]] = _values[i];\n\n        }\n\n\n        for (uint i = 0; i < _indexes.length; i++) {\n            if (isExistInMTAccumulator[_indexes[i]] == false){\n                isExistInMTAccumulator[_indexes[i]] = true;\n                indexes.push(_indexes[i]);\n            }\n        }\n        merkleRoot = merkleTree[0];\n        //        emit Issue(indexes, _values[0][0], _values[0][1], _values[0][2], _values[0][3]);\n\n    }\n\n\n\n\n\n    /*\n    verifies a VC by using two phase verification approach.\n\n    Inputs:\n        _bfIndexes: bloom filter indexes that needs to be set\n        vcLeaf: leaf value of the corresponding VC in the merkle tree\n        proof:  merkle proof\n\n    Operations:\n        Phase 1: check the revocation status in bloom filter. if bloom filter returns false, then it means that VC might be revoked.\n        phase 2:  check the merkle tree accumulator. if it returns true then it means the proof is valid otherwise invalid.\n\n    Returns:\n        True: indicates VC is valid\n        False: indicates VC is revoked\n    */\n    // function verifyVC(uint256[numberOfHashFunctions] memory _bfIndexes) public view returns(bool){\n\n    //     bool statusInBloomFilter = checkRevocationStatusInBloomFilter(_bfIndexes);\n\n    //     if(statusInBloomFilter==true){\n    //         return true;\n    //     }else{\n    //         return checkRevocationStatusInMerkleTreeAccumulator(vcLeaf, proof);\n    //     }\n    // }\n\n    /*\n    verifies a VC by using only bloom filters.\n\n    Inputs:\n        vcLeaf: leaf value of the corresponding VC in the merkle tree\n        proof:  merkle proof\n\n    Operations:\n         phase 2:  check the merkle tree accumulator. if it returns true then it means the proof is valid otherwise invalid.\n\n    Returns:\n        True: indicates VC is valid\n        False: indicates VC is revoked\n    */\n    function verificationPhase1(uint256[numberOfHashFunctions] memory _bfIndexes) public view returns(bool){\n        return checkRevocationStatusInBloomFilter(_bfIndexes);\n    }\n\n\n\n    // if it returns true then the VC is not revoked.\n    // if it retuns false then the VC is probably revoked.\n    function checkRevocationStatusInBloomFilter(uint256[numberOfHashFunctions] memory _indexes) public view returns(bool){\n\n        bool isValid = false;\n        for (uint i = 0; i < _indexes.length; i++) {\n            if(bloomFilter[_indexes[i]]==false){\n                isValid = true;\n                break;\n            }\n        }\n        return isValid;\n    }\n\n\n    /*\n    Returns the merkle root.\n    */\n    function verificationPhase2() public view returns(string memory){\n        return merkleTree[0];\n    }\n\n    function verificationPhase2Test() public returns(string memory){\n        return merkleTree[0];\n    }\n\n\n\n\n\n    // updates a non-leaf or leaf node at the specified index\n    function updateNode(uint index, string memory value) public{\n        //only own can replace merkle tree\n        require(msg.sender==issuer);\n        merkleTree[index] = value;\n    }\n\n    // prints the tree in console\n    function printMerkleTree() public view{\n\n        if (DEBUG==true){\n            console.log(\"priting merkle tree\");\n        }\n        for (uint i = 0; i < indexes.length; i++) {\n            if (DEBUG==true){\n                //                console.log(\"index : %d \\t value :\",i);\n                //                console.logBytes(abi.encodePacked(merkleTree[i]));\n                console.log(\"index : %d \\t value : %s\",i, merkleTree[i]);\n            }\n\n        }\n    }\n\n    function bytes32tostring(bytes32 _bytes32) private returns(string memory){\n        bytes memory bytesArray = new bytes(32);\n        for (uint256 i; i < 32; i++) {\n            bytesArray[i] = _bytes32[i];\n        }\n        return string(bytesArray);\n    }\n\n\n\n\n\n\n\n}",
  "sourcePath": "/Volumes/Research/Revocation Service/deployment/contracts/revocationservice.sol",
  "compiler": {
    "name": "solc",
    "version": "0.8.7+commit.e28d00a7.Emscripten.clang"
  },
  "schemaVersion": "3.4.16",
  "updatedAt": "2024-01-16T14:30:12.535Z",
  "networkType": "ethereum",
  "devdoc": {
    "kind": "dev",
    "methods": {},
    "version": 1
  },
  "userdoc": {
    "kind": "user",
    "methods": {},
    "version": 1
  }
}