{
  "contractName": "RevocationService",
  "abi": [
    {
      "inputs": [],
      "stateMutability": "nonpayable",
      "type": "constructor"
    },
    {
      "anonymous": false,
      "inputs": [
        {
          "indexed": false,
          "internalType": "uint256[]",
          "name": "_mtIndexes",
          "type": "uint256[]"
        },
        {
          "indexed": false,
          "internalType": "bytes1",
          "name": "_mtValue1",
          "type": "bytes1"
        },
        {
          "indexed": false,
          "internalType": "bytes1",
          "name": "_mtValue2",
          "type": "bytes1"
        },
        {
          "indexed": false,
          "internalType": "bytes1",
          "name": "_mtValue3",
          "type": "bytes1"
        },
        {
          "indexed": false,
          "internalType": "bytes1",
          "name": "_mtValue4",
          "type": "bytes1"
        }
      ],
      "name": "Issue",
      "type": "event"
    },
    {
      "anonymous": false,
      "inputs": [
        {
          "indexed": false,
          "internalType": "bytes32",
          "name": "merkleRoot",
          "type": "bytes32"
        },
        {
          "indexed": false,
          "internalType": "bytes32",
          "name": "vcLeaf",
          "type": "bytes32"
        },
        {
          "indexed": false,
          "internalType": "bytes32[]",
          "name": "proof",
          "type": "bytes32[]"
        }
      ],
      "name": "VerificationPhase2",
      "type": "event"
    },
    {
      "inputs": [
        {
          "internalType": "uint256",
          "name": "",
          "type": "uint256"
        }
      ],
      "name": "bloomFilter",
      "outputs": [
        {
          "internalType": "bool",
          "name": "",
          "type": "bool"
        }
      ],
      "stateMutability": "view",
      "type": "function",
      "constant": true
    },
    {
      "inputs": [
        {
          "internalType": "uint256",
          "name": "",
          "type": "uint256"
        }
      ],
      "name": "isExistInMTAccumulator",
      "outputs": [
        {
          "internalType": "bool",
          "name": "",
          "type": "bool"
        }
      ],
      "stateMutability": "view",
      "type": "function",
      "constant": true
    },
    {
      "inputs": [],
      "name": "merkleRoot",
      "outputs": [
        {
          "internalType": "bytes32",
          "name": "",
          "type": "bytes32"
        }
      ],
      "stateMutability": "view",
      "type": "function",
      "constant": true
    },
    {
      "inputs": [
        {
          "internalType": "uint256",
          "name": "",
          "type": "uint256"
        }
      ],
      "name": "merkleTree",
      "outputs": [
        {
          "internalType": "bytes32",
          "name": "",
          "type": "bytes32"
        }
      ],
      "stateMutability": "view",
      "type": "function",
      "constant": true
    },
    {
      "inputs": [],
      "name": "numberOfHashFunctions",
      "outputs": [
        {
          "internalType": "uint256",
          "name": "",
          "type": "uint256"
        }
      ],
      "stateMutability": "view",
      "type": "function",
      "constant": true
    },
    {
      "inputs": [],
      "name": "registerIssuers",
      "outputs": [],
      "stateMutability": "nonpayable",
      "type": "function"
    },
    {
      "inputs": [
        {
          "internalType": "uint256[]",
          "name": "_mtIndexes",
          "type": "uint256[]"
        },
        {
          "internalType": "bytes32[]",
          "name": "_mtValues",
          "type": "bytes32[]"
        }
      ],
      "name": "issueVC",
      "outputs": [],
      "stateMutability": "nonpayable",
      "type": "function"
    },
    {
      "inputs": [
        {
          "internalType": "uint256[1]",
          "name": "_bfIndexes",
          "type": "uint256[1]"
        },
        {
          "internalType": "uint256[]",
          "name": "_mtIndexes",
          "type": "uint256[]"
        },
        {
          "internalType": "bytes32[]",
          "name": "_mtValues",
          "type": "bytes32[]"
        }
      ],
      "name": "revokeVC",
      "outputs": [],
      "stateMutability": "nonpayable",
      "type": "function"
    },
    {
      "inputs": [
        {
          "internalType": "uint256[1]",
          "name": "_indexes",
          "type": "uint256[1]"
        }
      ],
      "name": "updateBloomFilter",
      "outputs": [],
      "stateMutability": "nonpayable",
      "type": "function"
    },
    {
      "inputs": [
        {
          "internalType": "uint256[]",
          "name": "_indexes",
          "type": "uint256[]"
        },
        {
          "internalType": "bytes32[]",
          "name": "_values",
          "type": "bytes32[]"
        }
      ],
      "name": "updateMerkleTree",
      "outputs": [],
      "stateMutability": "nonpayable",
      "type": "function"
    },
    {
      "inputs": [
        {
          "internalType": "uint256[1]",
          "name": "_bfIndexes",
          "type": "uint256[1]"
        }
      ],
      "name": "verificationPhase1",
      "outputs": [
        {
          "internalType": "bool",
          "name": "",
          "type": "bool"
        }
      ],
      "stateMutability": "view",
      "type": "function",
      "constant": true
    },
    {
      "inputs": [
        {
          "internalType": "uint256[1]",
          "name": "_indexes",
          "type": "uint256[1]"
        }
      ],
      "name": "checkRevocationStatusInBloomFilter",
      "outputs": [
        {
          "internalType": "bool",
          "name": "",
          "type": "bool"
        }
      ],
      "stateMutability": "view",
      "type": "function",
      "constant": true
    },
    {
      "inputs": [],
      "name": "verificationPhase2",
      "outputs": [
        {
          "internalType": "bytes32",
          "name": "",
          "type": "bytes32"
        }
      ],
      "stateMutability": "view",
      "type": "function",
      "constant": true
    },
    {
      "inputs": [],
      "name": "verificationPhase2Test",
      "outputs": [
        {
          "internalType": "bytes32",
          "name": "",
          "type": "bytes32"
        }
      ],
      "stateMutability": "nonpayable",
      "type": "function"
    },
    {
      "inputs": [
        {
          "internalType": "bytes32",
          "name": "vcLeaf",
          "type": "bytes32"
        },
        {
          "internalType": "bytes32[]",
          "name": "proof",
          "type": "bytes32[]"
        }
      ],
      "name": "verificationPhase2Old",
      "outputs": [
        {
          "internalType": "bool",
          "name": "",
          "type": "bool"
        }
      ],
      "stateMutability": "view",
      "type": "function",
      "constant": true
    },
    {
      "inputs": [
        {
          "internalType": "bytes32",
          "name": "vcLeaf",
          "type": "bytes32"
        },
        {
          "internalType": "bytes32[]",
          "name": "proof",
          "type": "bytes32[]"
        }
      ],
      "name": "verificationPhase2TestOld",
      "outputs": [
        {
          "internalType": "bool",
          "name": "",
          "type": "bool"
        }
      ],
      "stateMutability": "nonpayable",
      "type": "function"
    },
    {
      "inputs": [
        {
          "internalType": "bytes32",
          "name": "leaf",
          "type": "bytes32"
        },
        {
          "internalType": "bytes32[]",
          "name": "proof",
          "type": "bytes32[]"
        }
      ],
      "name": "checkRevocationStatusInMerkleTreeAccumulator",
      "outputs": [
        {
          "internalType": "bool",
          "name": "",
          "type": "bool"
        }
      ],
      "stateMutability": "view",
      "type": "function",
      "constant": true
    },
    {
      "inputs": [
        {
          "internalType": "uint256",
          "name": "index",
          "type": "uint256"
        },
        {
          "internalType": "bytes32",
          "name": "value",
          "type": "bytes32"
        }
      ],
      "name": "updateNode",
      "outputs": [],
      "stateMutability": "nonpayable",
      "type": "function"
    },
    {
      "inputs": [],
      "name": "printMerkleTree",
      "outputs": [],
      "stateMutability": "view",
      "type": "function",
      "constant": true
    },
    {
      "inputs": [],
      "name": "testRevocation",
      "outputs": [],
      "stateMutability": "nonpayable",
      "type": "function"
    }
  ],
  "bytecode": "0x608060405234801561001057600080fd5b5033600560006101000a81548173ffffffffffffffffffffffffffffffffffffffff021916908373ffffffffffffffffffffffffffffffffffffffff16021790555061282b806100616000396000f3fe608060405234801561001057600080fd5b506004361061012c5760003560e01c806356e7f37a116100ad578063bbb7e2ef11610071578063bbb7e2ef14610343578063ce4b3f3414610361578063d3e530421461037d578063e309196f14610387578063e5440a9b146103a35761012c565b806356e7f37a1461028d5780635b688264146102a95780639ddf3a63146102d9578063ad108b7514610309578063b0d2b15e146103395761012c565b8063376a6590116100f4578063376a6590146101c357806348db5336146101e15780634993101b146102115780634bd35c651461024157806351600698146102715761012c565b80630de54b85146101315780630df0ff901461013b57806319f267171461016b5780632337db35146101875780632eb4a7ab146101a5575b600080fd5b6101396103d3565b005b61015560048036038101906101509190611d98565b6103d5565b6040516101629190612146565b60405180910390f35b61018560048036038101906101809190611dc5565b6103ed565b005b61018f610463565b60405161019c9190612146565b60405180910390f35b6101ad61047e565b6040516101ba9190612146565b60405180910390f35b6101cb610484565b6040516101d891906122ea565b60405180910390f35b6101fb60048036038101906101f69190611d98565b610489565b604051610208919061212b565b60405180910390f35b61022b60048036038101906102269190611d3c565b6104a9565b604051610238919061212b565b60405180910390f35b61025b60048036038101906102569190611c0c565b6104d6565b604051610268919061212b565b60405180910390f35b61028b60048036038101906102869190611cc4565b6104e8565b005b6102a760048036038101906102a29190611c0c565b6107d3565b005b6102c360048036038101906102be9190611c0c565b610892565b6040516102d0919061212b565b60405180910390f35b6102f360048036038101906102ee9190611d3c565b61090e565b604051610300919061212b565b60405180910390f35b610323600480360381019061031e9190611d3c565b610970565b604051610330919061212b565b60405180910390f35b610341610984565b005b61034b611478565b6040516103589190612146565b60405180910390f35b61037b60048036038101906103769190611cc4565b611493565b005b6103856114fb565b005b6103a1600480360381019061039c9190611c39565b6115f7565b005b6103bd60048036038101906103b89190611d98565b611669565b6040516103ca919061212b565b60405180910390f35b565b60016020528060005260406000206000915090505481565b600560009054906101000a900473ffffffffffffffffffffffffffffffffffffffff1673ffffffffffffffffffffffffffffffffffffffff163373ffffffffffffffffffffffffffffffffffffffff161461044757600080fd5b8060016000848152602001908152602001600020819055505050565b60006001600080815260200190815260200160002054905090565b60025481565b600181565b60006020528060005260406000206000915054906101000a900460ff1681565b6000806104ca83600160008081526020019081526020016000205486611689565b90508091505092915050565b60006104e182610892565b9050919050565b600560009054906101000a900473ffffffffffffffffffffffffffffffffffffffff1673ffffffffffffffffffffffffffffffffffffffff163373ffffffffffffffffffffffffffffffffffffffff161461054257600080fd5b805182511461055057600080fd5b60005b82518110156105bb5781818151811061056f5761056e6125ad565b5b60200260200101516001600085848151811061058e5761058d6125ad565b5b602002602001015181526020019081526020016000208190555080806105b39061252b565b915050610553565b5060005b82518110156106ac5760001515600460008584815181106105e3576105e26125ad565b5b6020026020010151815260200190815260200160002060009054906101000a900460ff161515141561069957600160046000858481518110610628576106276125ad565b5b6020026020010151815260200190815260200160002060006101000a81548160ff021916908315150217905550600383828151811061066a576106696125ad565b5b602002602001015190806001815401808255809150506001900390600052602060002001600090919091909150555b80806106a49061252b565b9150506105bf565b5060016000808152602001908152602001600020546002819055507f31f3d2d784ee13ea1252b844fa60f0be609e591b43ab4ace2cade6d6d4525f5b6003826000815181106106fe576106fd6125ad565b5b6020026020010151600060208110610719576107186125ad565b5b1a60f81b83600081518110610731576107306125ad565b5b602002602001015160016020811061074c5761074b6125ad565b5b1a60f81b84600081518110610764576107636125ad565b5b602002602001015160026020811061077f5761077e6125ad565b5b1a60f81b85600081518110610797576107966125ad565b5b60200260200101516003602081106107b2576107b16125ad565b5b1a60f81b6040516107c79594939291906120d1565b60405180910390a15050565b600560009054906101000a900473ffffffffffffffffffffffffffffffffffffffff1673ffffffffffffffffffffffffffffffffffffffff163373ffffffffffffffffffffffffffffffffffffffff161461082d57600080fd5b60005b600181101561088e576001600080848460018110610851576108506125ad565b5b6020020151815260200190815260200160002060006101000a81548160ff02191690831515021790555080806108869061252b565b915050610830565b5050565b6000806000905060005b600181101561090457600015156000808684600181106108bf576108be6125ad565b5b6020020151815260200190815260200160002060009054906101000a900460ff16151514156108f15760019150610904565b80806108fc9061252b565b91505061089c565b5080915050919050565b60007f518b0f6d8d08ac9bfd6000c702f772cb73ca7c04cbb7dc2421a005c821a2dcc96001600080815260200190815260200160002054848460405161095693929190612161565b60405180910390a161096883836104a9565b905092915050565b600061097c83836104a9565b905092915050565b61098c6119e8565b6000600190505b60018110156109cc57808282600181106109b0576109af6125ad565b5b60200201818152505080806109c49061252b565b915050610993565b5060006040516020016109de9061228a565b6040516020818303038152906040528051906020012090506000604051602001610a07906122ca565b6040516020818303038152906040528051906020012090506000604051602001610a309061224a565b6040516020818303038152906040528051906020012090506000604051602001610a599061226a565b60405160208183030381529060405280519060200120905060008484604051602001610a869291906120a5565b60405160208183030381529060405280519060200120905060008383604051602001610ab39291906120a5565b60405160208183030381529060405280519060200120905060008282604051602001610ae09291906120a5565b6040516020818303038152906040528051906020012090506000600767ffffffffffffffff811115610b1557610b146125dc565b5b604051908082528060200260200182016040528015610b435781602001602082028036833780820191505090505b509050600081600081518110610b5c57610b5b6125ad565b5b602002602001018181525050600181600181518110610b7e57610b7d6125ad565b5b602002602001018181525050600281600281518110610ba057610b9f6125ad565b5b602002602001018181525050600381600381518110610bc257610bc16125ad565b5b602002602001018181525050600481600481518110610be457610be36125ad565b5b602002602001018181525050600581600581518110610c0657610c056125ad565b5b602002602001018181525050600681600681518110610c2857610c276125ad565b5b6020026020010181815250506000600767ffffffffffffffff811115610c5157610c506125dc565b5b604051908082528060200260200182016040528015610c7f5781602001602082028036833780820191505090505b5090508281600081518110610c9757610c966125ad565b5b6020026020010181815250508481600181518110610cb857610cb76125ad565b5b6020026020010181815250508381600281518110610cd957610cd86125ad565b5b6020026020010181815250508881600381518110610cfa57610cf96125ad565b5b6020026020010181815250508781600481518110610d1b57610d1a6125ad565b5b6020026020010181815250508681600581518110610d3c57610d3b6125ad565b5b6020026020010181815250508581600681518110610d5d57610d5c6125ad565b5b60200260200101818152505060011515600115151415610dd757610db56040518060400160405280602081526020017f69737375696e67205643733a205643312c205643322c205643332c20564333348152506116a0565b610dd660405180606001604052806035815260200161279e603591396116a0565b5b610de18282611493565b50506000600267ffffffffffffffff811115610e0057610dff6125dc565b5b604051908082528060200260200182016040528015610e2e5781602001602082028036833780820191505090505b5090508681600081518110610e4657610e456125ad565b5b6020026020010181815250508281600181518110610e6757610e666125ad565b5b60200260200101818152505060011515600115151415610ec057610ebf6040518060400160405280601381526020017f6e6f772076657269666979696e672076633120000000000000000000000000008152506116a0565b5b60011515600115151415611040576000610ed98a6104d6565b9050600081610f1d576040518060400160405280601081526020017f70726f6261626c79207265766f6b656400000000000000000000000000000000815250610f54565b6040518060400160405280600b81526020017f6e6f74207265766f6b65640000000000000000000000000000000000000000008152505b905060011515600115151415610f8757610f8660405180606001604052806023815260200161277b6023913982611739565b5b610f918a84610970565b915081610fd3576040518060400160405280600881526020017f207265766f6b656400000000000000000000000000000000000000000000000081525061100a565b6040518060400160405280600b81526020017f6e6f74207265766f6b65640000000000000000000000000000000000000000008152505b90506001151560011515141561103d5761103c6040518060600160405280602381526020016127d36023913982611739565b5b50505b6001151560011515141561108d5761108c6040518060400160405280601681526020017f6e6f77207265766f6b696e67205643312e2e2e2e2e2e000000000000000000008152506116a0565b5b600060405160200161109e906122aa565b60405160208183030381529060405280519060200120905080886040516020016110c99291906120a5565b60405160208183030381529060405280519060200120945084846040516020016110f49291906120a5565b6040516020818303038152906040528051906020012092506000600367ffffffffffffffff811115611129576111286125dc565b5b6040519080825280602002602001820160405280156111575781602001602082028036833780820191505090505b5090506000600367ffffffffffffffff811115611177576111766125dc565b5b6040519080825280602002602001820160405280156111a55781602001602082028036833780820191505090505b5090506000826000815181106111be576111bd6125ad565b5b60200260200101818152505084816000815181106111df576111de6125ad565b5b602002602001018181525050600182600181518110611201576112006125ad565b5b6020026020010181815250508681600181518110611222576112216125ad565b5b602002602001018181525050600382600281518110611244576112436125ad565b5b6020026020010181815250508281600281518110611265576112646125ad565b5b60200260200101818152505061127c8c83836115f7565b505050600061128a8a6104d6565b90506000816112ce576040518060400160405280601081526020017f70726f6261626c79207265766f6b656400000000000000000000000000000000815250611305565b6040518060400160405280600b81526020017f6e6f74207265766f6b65640000000000000000000000000000000000000000008152505b9050600115156001151514156113385761133760405180606001604052806023815260200161277b6023913982611739565b5b60006113448b85610970565b905080611386576040518060400160405280600881526020017f207265766f6b65640000000000000000000000000000000000000000000000008152506113bd565b6040518060400160405280600b81526020017f6e6f74207265766f6b65640000000000000000000000000000000000000000008152505b9150600115156001151514156113f0576113ef6040518060600160405280602381526020016127d36023913983611739565b5b60006113fa611478565b60405160200161140a919061208a565b604051602081830303815290604052905060011515600115151415611469576114686040518060400160405280600d81526020017f6d65726b6c6520726f6f743a200000000000000000000000000000000000000081525082611739565b5b50505050505050505050505050565b60006001600080815260200190815260200160002054905090565b600560009054906101000a900473ffffffffffffffffffffffffffffffffffffffff1673ffffffffffffffffffffffffffffffffffffffff163373ffffffffffffffffffffffffffffffffffffffff16146114ed57600080fd5b6114f782826104e8565b5050565b60011515600115151415611548576115476040518060400160405280601381526020017f70726974696e67206d65726b6c652074726565000000000000000000000000008152506116a0565b5b60005b6003805490508110156115f457600115156001151514156115e1576115a56040518060400160405280601481526020017f696e646578203a20256420092076616c7565203a000000000000000000000000815250826117d5565b6115e060016000838152602001908152602001600020546040516020016115cc919061208a565b604051602081830303815290604052611871565b5b80806115ec9061252b565b91505061154b565b50565b600560009054906101000a900473ffffffffffffffffffffffffffffffffffffffff1673ffffffffffffffffffffffffffffffffffffffff163373ffffffffffffffffffffffffffffffffffffffff161461165157600080fd5b61165a836107d3565b61166482826104e8565b505050565b60046020528060005260406000206000915054906101000a900460ff1681565b600082611696858461190a565b1490509392505050565b611736816040516024016116b491906121c1565b6040516020818303038152906040527f41304fac000000000000000000000000000000000000000000000000000000007bffffffffffffffffffffffffffffffffffffffffffffffffffffffff19166020820180517bffffffffffffffffffffffffffffffffffffffffffffffffffffffff8381831617835250505050611960565b50565b6117d1828260405160240161174f9291906121e3565b6040516020818303038152906040527f4b5c4277000000000000000000000000000000000000000000000000000000007bffffffffffffffffffffffffffffffffffffffffffffffffffffffff19166020820180517bffffffffffffffffffffffffffffffffffffffffffffffffffffffff8381831617835250505050611960565b5050565b61186d82826040516024016117eb92919061221a565b6040516020818303038152906040527fb60e72cc000000000000000000000000000000000000000000000000000000007bffffffffffffffffffffffffffffffffffffffffffffffffffffffff19166020820180517bffffffffffffffffffffffffffffffffffffffffffffffffffffffff8381831617835250505050611960565b5050565b61190781604051602401611885919061219f565b6040516020818303038152906040527f0be77f56000000000000000000000000000000000000000000000000000000007bffffffffffffffffffffffffffffffffffffffffffffffffffffffff19166020820180517bffffffffffffffffffffffffffffffffffffffffffffffffffffffff8381831617835250505050611960565b50565b60008082905060005b84518110156119555761194082868381518110611933576119326125ad565b5b602002602001015161197a565b9150808061194d9061252b565b915050611913565b508091505092915050565b6119778161196f6119a56119c6565b63ffffffff16565b50565b60008183106119925761198d82846119d1565b61199d565b61199c83836119d1565b5b905092915050565b60006a636f6e736f6c652e6c6f679050600080835160208501845afa505050565b611a0a819050919050565b600082600052816020526040600020905092915050565b6040518060200160405280600190602082028036833780820191505090505090565b611a1261260b565b565b6000611a27611a228461232a565b612305565b90508083825260208201905082856020860282011115611a4a57611a49612652565b5b60005b85811015611a7a5781611a608882611be2565b845260208401935060208301925050600181019050611a4d565b5050509392505050565b6000611a97611a9284612356565b612305565b90508082856020860282011115611ab157611ab0612652565b5b60005b85811015611ae15781611ac78882611bf7565b845260208401935060208301925050600181019050611ab4565b5050509392505050565b6000611afe611af98461237c565b612305565b90508083825260208201905082856020860282011115611b2157611b20612652565b5b60005b85811015611b515781611b378882611bf7565b845260208401935060208301925050600181019050611b24565b5050509392505050565b600082601f830112611b7057611b6f61264d565b5b8135611b80848260208601611a14565b91505092915050565b600082601f830112611b9e57611b9d61264d565b5b6001611bab848285611a84565b91505092915050565b600082601f830112611bc957611bc861264d565b5b8135611bd9848260208601611aeb565b91505092915050565b600081359050611bf18161274c565b92915050565b600081359050611c0681612763565b92915050565b600060208284031215611c2257611c2161265c565b5b6000611c3084828501611b89565b91505092915050565b600080600060608486031215611c5257611c5161265c565b5b6000611c6086828701611b89565b935050602084013567ffffffffffffffff811115611c8157611c80612657565b5b611c8d86828701611bb4565b925050604084013567ffffffffffffffff811115611cae57611cad612657565b5b611cba86828701611b5b565b9150509250925092565b60008060408385031215611cdb57611cda61265c565b5b600083013567ffffffffffffffff811115611cf957611cf8612657565b5b611d0585828601611bb4565b925050602083013567ffffffffffffffff811115611d2657611d25612657565b5b611d3285828601611b5b565b9150509250929050565b60008060408385031215611d5357611d5261265c565b5b6000611d6185828601611be2565b925050602083013567ffffffffffffffff811115611d8257611d81612657565b5b611d8e85828601611b5b565b9150509250929050565b600060208284031215611dae57611dad61265c565b5b6000611dbc84828501611bf7565b91505092915050565b60008060408385031215611ddc57611ddb61265c565b5b6000611dea85828601611bf7565b9250506020611dfb85828601611be2565b9150509250929050565b6000611e118383611f16565b60208301905092915050565b6000611e29838361206c565b60208301905092915050565b6000611e40826123cd565b611e4a8185612413565b9350611e55836123a8565b8060005b83811015611e86578151611e6d8882611e05565b9750611e78836123f9565b925050600181019050611e59565b5085935050505092915050565b6000611e9e826123d8565b611ea88185612424565b9350611eb3836123b8565b8060005b83811015611eeb57611ec88261263a565b611ed28882611e1d565b9750611edd83612406565b925050600181019050611eb7565b5085935050505092915050565b611f0181612461565b82525050565b611f108161246d565b82525050565b611f1f81612499565b82525050565b611f2e81612499565b82525050565b611f45611f4082612499565b612574565b82525050565b6000611f56826123e3565b611f608185612435565b9350611f708185602086016124ad565b611f7981612661565b840191505092915050565b6000611f8f826123ee565b611f998185612446565b9350611fa98185602086016124ad565b611fb281612661565b840191505092915050565b6000611fca600383612446565b9150611fd58261267f565b602082019050919050565b6000611fed600383612446565b9150611ff8826126a8565b602082019050919050565b6000612010600383612446565b915061201b826126d1565b602082019050919050565b6000612033600c83612446565b915061203e826126fa565b602082019050919050565b6000612056600383612446565b915061206182612723565b602082019050919050565b612075816124a3565b82525050565b612084816124a3565b82525050565b60006120968284611f34565b60208201915081905092915050565b60006120b18285611f34565b6020820191506120c18284611f34565b6020820191508190509392505050565b600060a08201905081810360008301526120eb8188611e93565b90506120fa6020830187611f07565b6121076040830186611f07565b6121146060830185611f07565b6121216080830184611f07565b9695505050505050565b60006020820190506121406000830184611ef8565b92915050565b600060208201905061215b6000830184611f25565b92915050565b60006060820190506121766000830186611f25565b6121836020830185611f25565b81810360408301526121958184611e35565b9050949350505050565b600060208201905081810360008301526121b98184611f4b565b905092915050565b600060208201905081810360008301526121db8184611f84565b905092915050565b600060408201905081810360008301526121fd8185611f84565b905081810360208301526122118184611f84565b90509392505050565b600060408201905081810360008301526122348185611f84565b9050612243602083018461207b565b9392505050565b6000602082019050818103600083015261226381611fbd565b9050919050565b6000602082019050818103600083015261228381611fe0565b9050919050565b600060208201905081810360008301526122a381612003565b9050919050565b600060208201905081810360008301526122c381612026565b9050919050565b600060208201905081810360008301526122e381612049565b9050919050565b60006020820190506122ff600083018461207b565b92915050565b600061230f612320565b905061231b82826124fa565b919050565b6000604051905090565b600067ffffffffffffffff821115612345576123446125dc565b5b602082029050602081019050919050565b600067ffffffffffffffff821115612371576123706125dc565b5b602082029050919050565b600067ffffffffffffffff821115612397576123966125dc565b5b602082029050602081019050919050565b6000819050602082019050919050565b60008190508160005260206000209050919050565b600081519050919050565b600081549050919050565b600081519050919050565b600081519050919050565b6000602082019050919050565b6000600182019050919050565b600082825260208201905092915050565b600082825260208201905092915050565b600082825260208201905092915050565b600082825260208201905092915050565b6000819050919050565b60008115159050919050565b60007fff0000000000000000000000000000000000000000000000000000000000000082169050919050565b6000819050919050565b6000819050919050565b60005b838110156124cb5780820151818401526020810190506124b0565b838111156124da576000848401525b50505050565b60006124f36124ee83612672565b612457565b9050919050565b61250382612661565b810181811067ffffffffffffffff82111715612522576125216125dc565b5b80604052505050565b6000612536826124a3565b91507fffffffffffffffffffffffffffffffffffffffffffffffffffffffffffffffff8214156125695761256861257e565b5b600182019050919050565b6000819050919050565b7f4e487b7100000000000000000000000000000000000000000000000000000000600052601160045260246000fd5b7f4e487b7100000000000000000000000000000000000000000000000000000000600052603260045260246000fd5b7f4e487b7100000000000000000000000000000000000000000000000000000000600052604160045260246000fd5b7f4e487b7100000000000000000000000000000000000000000000000000000000600052605160045260246000fd5b600061264682546124e0565b9050919050565b600080fd5b600080fd5b600080fd5b600080fd5b6000601f19601f8301169050919050565b60008160001c9050919050565b7f7663330000000000000000000000000000000000000000000000000000000000600082015250565b7f7663340000000000000000000000000000000000000000000000000000000000600082015250565b7f7663310000000000000000000000000000000000000000000000000000000000600082015250565b7f76632031207265766f6b65640000000000000000000000000000000000000000600082015250565b7f7663320000000000000000000000000000000000000000000000000000000000600082015250565b61275581612499565b811461276057600080fd5b50565b61276c816124a3565b811461277757600080fd5b5056fe706861736520313a207265766f636174696f6e20737461747573206f66205643313a206d65726b6c65207472656520616363756d756c61746f7220697320696e697469616c697a656420776974682076616c696420766373706861736520323a207265766f636174696f6e20737461747573206f66205643313a20a26469706673582212209f2b987dce47e1d0f8b97f7ccbd49362fb7367164677452ca610ac7c0abf32f364736f6c63430008070033",
  "immutableReferences": {},
  "source": "//SPDX-License-Identifier: MIT\n\npragma solidity ^0.8.7;\nimport \"./console.sol\";\nimport \"./MerkleProof.sol\";\n\ncontract RevocationService{\n\n    bool private constant DEBUG = true;\n\n    // bloom filter\n    uint public constant numberOfHashFunctions = 1;\n    // const private numberofVCs = 10000;\n\n    // // BF size is set for 10% false positive\n    // const private bfSize = 50000;\n\n    // storing bloom filters as maps\n    mapping(uint256=>bool) public bloomFilter;\n\n\n    /*\n    merkle tree\n    stores entries in level order\n    root is stored at index 0.\n    */\n    mapping(uint => bytes32) public merkleTree;\n\n    bytes32 public merkleRoot;\n\n    // stores the list of indexes present in the merkle tree.\n    uint[] private indexes;\n    mapping (uint => bool) public isExistInMTAccumulator;\n\n    // issuer is the owner of the contract\n    address issuer;\n\n\n    event Issue(uint[]  _mtIndexes, bytes1  _mtValue1, bytes1  _mtValue2, bytes1  _mtValue3, bytes1  _mtValue4);\n    event VerificationPhase2(bytes32 merkleRoot, bytes32 vcLeaf, bytes32[] proof);\n    // sets the issuer - contract creator is the issuer\n    constructor(){\n        issuer = msg.sender;\n    }\n\n    /*\n    This function is used to register new issuers.\n    Register did of issuers and public keys. (maybe in the form of DID Docs).\n    input: did doc\n    */\n    function registerIssuers() public{\n\n    }\n\n\n    /*\n    This function is used to set proofs at merkle tree accumulator when one or more VC is issued.\n    The merkle tree stores hash of VCs in leaves. Arrays using Level order structure is used to store the merkle tree.\n    Every time new VC is issued, update the array.\n\n\n    Note: The logic for mapping VCs to level order indexes should be done at the issuers side.\n    */\n    function issueVC(uint[] memory _mtIndexes, bytes32[] memory _mtValues) public{\n        //only issuer can perform the revocation\n        require(msg.sender==issuer);\n\n        updateMerkleTree(_mtIndexes, _mtValues);\n    }\n\n    /*\n    Revokes a VC by updating bloom filter and merkle tree accumulator.\n\n    Inputs:\n        _bfIndexes: bloom filter indexes that needs to be set\n        _mtIndexes: merkle tree indexes that needs to be updated\n        _mtValues:  merkle tree values corresponding to the indexes.\n\n    Operations:\n        Bloom filter: sets the indexes at bloomfilter to 1\n        merkle tree accumulator: update the merkle tree. since we only store 'k' levels, not all revocations might require update of\n        merkle tree. if merkle tree doesn't require update, then index to -1\n\n    Note: set merkle tree to -1 if it is not required to update merkle tree.\n    */\n    function revokeVC(uint256[numberOfHashFunctions] memory _bfIndexes, uint[] memory _mtIndexes, bytes32[] memory _mtValues) public{\n        //only issuer can perform the revocation\n        require(msg.sender==issuer);\n\n        updateBloomFilter(_bfIndexes);\n        updateMerkleTree(_mtIndexes, _mtValues);\n\n    }\n\n\n\n    function updateBloomFilter(uint256[numberOfHashFunctions] memory _indexes) public{\n\n        //only issuer can perform the revocation\n        require(msg.sender==issuer);\n\n        // sets the indexes to true\n        for (uint i = 0; i < _indexes.length; i++) {\n            bloomFilter[_indexes[i]] = true;\n        }\n    }\n\n\n    // updates the merkle tree values in the speicified indexes\n    function updateMerkleTree(uint[] memory _indexes, bytes32[] memory _values) public {\n\n        //only own can replace merkle tree\n        require(msg.sender==issuer);\n\n        // indexes and values should have same number of entries\n        require(_indexes.length==_values.length);\n\n\n        // update the merkle tree\n        for (uint i = 0; i < _indexes.length; i++) {\n            merkleTree[_indexes[i]] = _values[i];\n\n        }\n\n\n        for (uint i = 0; i < _indexes.length; i++) {\n            if (isExistInMTAccumulator[_indexes[i]] == false){\n                isExistInMTAccumulator[_indexes[i]] = true;\n                indexes.push(_indexes[i]);\n            }\n        }\n        merkleRoot = merkleTree[0];\n        emit Issue(indexes, _values[0][0], _values[0][1], _values[0][2], _values[0][3]);\n\n    }\n\n\n\n\n\n    /*\n    verifies a VC by using two phase verification approach.\n\n    Inputs:\n        _bfIndexes: bloom filter indexes that needs to be set\n        vcLeaf: leaf value of the corresponding VC in the merkle tree\n        proof:  merkle proof\n\n    Operations:\n        Phase 1: check the revocation status in bloom filter. if bloom filter returns false, then it means that VC might be revoked.\n        phase 2:  check the merkle tree accumulator. if it returns true then it means the proof is valid otherwise invalid.\n\n    Returns:\n        True: indicates VC is valid\n        False: indicates VC is revoked\n    */\n    // function verifyVC(uint256[numberOfHashFunctions] memory _bfIndexes) public view returns(bool){\n\n    //     bool statusInBloomFilter = checkRevocationStatusInBloomFilter(_bfIndexes);\n\n    //     if(statusInBloomFilter==true){\n    //         return true;\n    //     }else{\n    //         return checkRevocationStatusInMerkleTreeAccumulator(vcLeaf, proof);\n    //     }\n    // }\n\n    /*\n    verifies a VC by using only bloom filters.\n\n    Inputs:\n        vcLeaf: leaf value of the corresponding VC in the merkle tree\n        proof:  merkle proof\n\n    Operations:\n         phase 2:  check the merkle tree accumulator. if it returns true then it means the proof is valid otherwise invalid.\n\n    Returns:\n        True: indicates VC is valid\n        False: indicates VC is revoked\n    */\n    function verificationPhase1(uint256[numberOfHashFunctions] memory _bfIndexes) public view returns(bool){\n        return checkRevocationStatusInBloomFilter(_bfIndexes);\n    }\n\n\n\n    // if it returns true then the VC is not revoked.\n    // if it retuns false then the VC is probably revoked.\n    function checkRevocationStatusInBloomFilter(uint256[numberOfHashFunctions] memory _indexes) public view returns(bool){\n\n        bool isValid = false;\n        for (uint i = 0; i < _indexes.length; i++) {\n            if(bloomFilter[_indexes[i]]==false){\n                isValid = true;\n                break;\n            }\n        }\n        return isValid;\n    }\n\n\n    /*\n    Returns the merkle root.\n    */\n    function verificationPhase2() public view returns(bytes32){\n        return merkleTree[0];\n    }\n\n    function verificationPhase2Test() public returns(bytes32){\n        return merkleTree[0];\n    }\n\n\n    /*\n    verifies a VC by using only merkle tree accumulator.\n\n    Inputs:\n        _bfIndexes: bloom filter indexes that needs to be set\n\n    Operations:\n        Phase 1: check the revocation status in bloom filter. if bloom filter returns false, then it means that VC might be revoked.\n\n    Returns:\n        True: indicates VC is valid\n        False: indicates VC is revoked\n    */\n    function verificationPhase2Old(bytes32 vcLeaf, bytes32[] memory proof) public view returns(bool){\n        return checkRevocationStatusInMerkleTreeAccumulator(vcLeaf, proof);\n    }\n\n    function verificationPhase2TestOld(bytes32 vcLeaf, bytes32[] memory proof) public returns(bool){\n        emit VerificationPhase2(merkleTree[0], vcLeaf, proof);\n        return checkRevocationStatusInMerkleTreeAccumulator(vcLeaf, proof);\n    }\n\n    /*\n    check whether  the leaf value of the VC is present in the merkle tree. verify whether the proof is valid is or not not.\n    If proof is valid then it means that VC is present in the merkle tree. therefore, it is not revoked.\n    If proof is invalid then it means that VC is not present in the merkle tree. therefore, it is revoked.\n\n    returns\n    True -  if VC is not revoked.\n    False - if VC is revoked\n    */\n    function checkRevocationStatusInMerkleTreeAccumulator(bytes32 leaf, bytes32[] memory proof) public view returns (bool){\n\n        bool status = MerkleProof.verify(proof, merkleTree[0], leaf);\n        // if (DEBUG==true){\n        //     console.log(\"verification status of merkle proof: \", status);\n        // }\n\n        return status;\n    }\n\n\n\n\n    // updates a non-leaf or leaf node at the specified index\n    function updateNode(uint index, bytes32 value) public{\n        //only own can replace merkle tree\n        require(msg.sender==issuer);\n        merkleTree[index] = value;\n    }\n\n    // prints the tree in console\n    function printMerkleTree() public view{\n\n        if (DEBUG==true){\n            console.log(\"priting merkle tree\");\n        }\n        for (uint i = 0; i < indexes.length; i++) {\n            if (DEBUG==true){\n                console.log(\"index : %d \\t value :\",i);\n                console.logBytes(abi.encodePacked(merkleTree[i]));\n            }\n\n        }\n    }\n\n    function bytes32tostring(bytes32 _bytes32) private returns(string memory){\n        bytes memory bytesArray = new bytes(32);\n        for (uint256 i; i < 32; i++) {\n            bytesArray[i] = _bytes32[i];\n        }\n        return string(bytesArray);\n    }\n\n\n    function testRevocation() public{\n\n        uint[numberOfHashFunctions] memory vc1BloomFilter;\n\n        for (uint i = 1; i < numberOfHashFunctions; i++){\n            vc1BloomFilter[i] = i;\n        }\n        // uint256[numberOfHashFunctions] memory vc2BloomFilter = [uint256(4),uint256(5),uint256(6)];\n        // uint256[numberOfHashFunctions] memory vc3BloomFilter = [uint256(7),uint256(8),uint256(9)];\n        // uint256[numberOfHashFunctions] memory vc4BloomFilter = [uint256(10),uint256(11),uint256(12)];\n\n\n\n        // mapping(uint => bytes32) memory tree;\n        bytes32 vc1MTAcc = keccak256(abi.encode(\"vc1\"));\n        bytes32 vc2MTAcc = keccak256(abi.encode(\"vc2\"));\n        bytes32 vc3MTAcc = keccak256(abi.encode(\"vc3\"));\n        bytes32 vc4MTAcc = keccak256(abi.encode(\"vc4\"));\n\n        bytes32 internal1 = keccak256(abi.encodePacked(vc1MTAcc, vc2MTAcc));\n        bytes32 internal2 = keccak256(abi.encodePacked(vc3MTAcc, vc4MTAcc));\n\n        bytes32 root = keccak256(abi.encodePacked(internal1, internal2));\n\n        {\n            uint[] memory myindexes = new uint[](7);\n            myindexes[0] = uint(0);\n            myindexes[1] = uint(1);\n            myindexes[2] = uint(2);\n            myindexes[3] = uint(3);\n            myindexes[4] = uint(4);\n            myindexes[5] = uint(5);\n            myindexes[6] = uint(6);\n\n\n            bytes32[] memory values = new bytes32[](7);\n            values[0] = root;\n            values[1] = internal1;\n            values[2] = internal2;\n            values[3] = vc1MTAcc;\n            values[4] = vc2MTAcc;\n            values[5] = vc3MTAcc;\n            values[6] = vc4MTAcc;\n            if (DEBUG==true){\n                console.log(\"issuing VCs: VC1, VC2, VC3, VC34\");\n                console.log(\"merkle tree accumulator is initialized with valid vcs\");\n            }\n            issueVC(myindexes, values);\n        }\n\n\n        bytes32[] memory proofForVC1 = new bytes32[](2);\n        proofForVC1[0] = vc2MTAcc;\n        proofForVC1[1] = internal2;\n\n\n\n        {\n\n\n            if(DEBUG==true){\n                console.log(\"now verifiying vc1 \");\n            }\n            // bool statusOfVC1BeforeRevoking = verifyVC(vc1BloomFilter, vc1MTAcc, proofForVC1);\n            // string memory vc1StatusBeforeRevoking = statusOfVC1BeforeRevoking ? \"not revoked\" : \"revoked\";\n            if (DEBUG==true){\n                // console.log(\"the revocation status of VC1: \",vc1StatusBeforeRevoking);\n\n                bool statusOfVC1BeforeRevoking = verificationPhase1(vc1BloomFilter);\n                string memory vc1StatusBeforeRevoking = statusOfVC1BeforeRevoking ? \"not revoked\" : \"probably revoked\";\n                if (DEBUG==true){\n                    console.log(\"phase 1: revocation status of VC1: \",vc1StatusBeforeRevoking);\n                }\n\n                // if(DEBUG==true){\n                //     console.log(\"merkle leaf :\");\n                //     console.logBytes(abi.encodePacked(vc1MTAcc));\n                //     console.log(\"merkle proofas: \");\n                //     for (uint i=0; i<2;i++)\n                //     {\n                //         console.logBytes(abi.encodePacked(proofForVC1[i]));\n                //     }\n                // }\n                statusOfVC1BeforeRevoking = verificationPhase2Old(vc1MTAcc, proofForVC1);\n                vc1StatusBeforeRevoking = statusOfVC1BeforeRevoking ? \"not revoked\" : \" revoked\";\n                if (DEBUG==true){\n                    console.log(\"phase 2: revocation status of VC1: \",vc1StatusBeforeRevoking);\n                }\n            }\n        }\n\n\n        {\n            if (DEBUG==true){\n                console.log(\"now revoking VC1......\");\n            }\n            bytes32 revokedvc1MTAcc = keccak256(abi.encode(\"vc 1 revoked\"));\n            internal1 = keccak256(abi.encodePacked(revokedvc1MTAcc, vc2MTAcc));\n            root = keccak256(abi.encodePacked(internal1, internal2));\n            uint[] memory mtIndexesAfterRevocation = new uint[](3);\n            bytes32[] memory mtValuesAfterRevocation = new bytes32[](3);\n            mtIndexesAfterRevocation[0] = uint(0);\n            mtValuesAfterRevocation[0] = root;\n            mtIndexesAfterRevocation[1] = uint(1);\n            mtValuesAfterRevocation[1] = internal1;\n            mtIndexesAfterRevocation[2] = uint(3);\n            mtValuesAfterRevocation[2] = revokedvc1MTAcc;\n\n            revokeVC(vc1BloomFilter,mtIndexesAfterRevocation, mtValuesAfterRevocation);\n        }\n\n        // bool statusOfVC1 = verifyVC(vc1BloomFilter, vc1MTAcc, proofForVC1);\n        // string memory vc1Status = statusOfVC1 ? \"not revoked\" : \"revoked\";\n        // if (DEBUG==true){\n        //     console.log(\"the revocation status of VC1: \",vc1Status);\n        // }\n\n\n        bool statusOfVC1InPhase1 = verificationPhase1(vc1BloomFilter);\n        string memory vc1Status = statusOfVC1InPhase1 ? \"not revoked\" : \"probably revoked\";\n        if (DEBUG==true){\n            console.log(\"phase 1: revocation status of VC1: \",vc1Status);\n        }\n\n        bool statusOfVC1InPhase2 = verificationPhase2Old(vc1MTAcc, proofForVC1);\n        vc1Status = statusOfVC1InPhase2 ? \"not revoked\" : \" revoked\";\n        if (DEBUG==true){\n            console.log(\"phase 2: revocation status of VC1: \",vc1Status);\n        }\n\n        string memory mtRoot = string(abi.encodePacked(verificationPhase2()));\n        if (DEBUG==true){\n            console.log(\"merkle root: \", mtRoot);\n        }\n\n\n\n\n    }\n\n\n\n\n}",
  "sourcePath": "/Volumes/Research/Revocation Service/deployment/contracts/revocationservice.sol",
  "compiler": {
    "name": "solc",
    "version": "0.8.7+commit.e28d00a7.Emscripten.clang"
  },
  "schemaVersion": "3.4.16",
  "updatedAt": "2023-12-09T15:10:32.097Z",
  "networkType": "ethereum",
  "devdoc": {
    "kind": "dev",
    "methods": {},
    "version": 1
  },
  "userdoc": {
    "kind": "user",
    "methods": {},
    "version": 1
  }
}