{
	"data": {
		"bytecode": {
			"linkReferences": {},
			"object": "608060405234801561001057600080fd5b5033600160006101000a81548173ffffffffffffffffffffffffffffffffffffffff021916908373ffffffffffffffffffffffffffffffffffffffff160217905550610a4b806100616000396000f3fe608060405234801561001057600080fd5b50600436106100625760003560e01c80630de54b85146100675780631d1438481461007157806348db53361461008f57806389cdfa6e146100bf578063b0d2b15e146100db578063c3eed8e7146100e5575b600080fd5b61006f610115565b005b610079610117565b60405161008691906105f7565b60405180910390f35b6100a960048036038101906100a49190610657565b61013d565b6040516100b6919061069f565b60405180910390f35b6100d960048036038101906100d49190610801565b61015d565b005b6100e361021c565b005b6100ff60048036038101906100fa9190610801565b610449565b60405161010c919061069f565b60405180910390f35b565b600160009054906101000a900473ffffffffffffffffffffffffffffffffffffffff1681565b60006020528060005260406000206000915054906101000a900460ff1681565b600160009054906101000a900473ffffffffffffffffffffffffffffffffffffffff1673ffffffffffffffffffffffffffffffffffffffff163373ffffffffffffffffffffffffffffffffffffffff16146101b757600080fd5b60005b60038110156102185760016000808484600381106101db576101da61082e565b5b6020020151815260200190815260200160002060006101000a81548160ff02191690831515021790555080806102109061088c565b9150506101ba565b5050565b60006040518060600160405280600181526020016002815260200160038152509050600060405180606001604052806004815260200160058152602001600681525090506000604051806060016040528060078152602001600881526020016009815250905061028b8361015d565b6102948261015d565b600061029f84610449565b6102de576040518060400160405280600b81526020017f6e6f74207265766f6b6564000000000000000000000000000000000000000000815250610315565b6040518060400160405280600781526020017f7265766f6b6564000000000000000000000000000000000000000000000000008152505b9050600061032284610449565b610361576040518060400160405280600b81526020017f6e6f74207265766f6b6564000000000000000000000000000000000000000000815250610398565b6040518060400160405280600781526020017f7265766f6b6564000000000000000000000000000000000000000000000000008152505b905060006103a584610449565b6103e4576040518060400160405280600b81526020017f6e6f74207265766f6b656400000000000000000000000000000000000000000081525061041b565b6040518060400160405280600781526020017f7265766f6b6564000000000000000000000000000000000000000000000000008152505b90506104416040518060600160405280603281526020016109e4603291398484846104c4565b505050505050565b6000806000905060005b60038110156104ba57600115156000808684600381106104765761047561082e565b5b6020020151815260200190815260200160002060009054906101000a900460ff161515036104a757600191506104ba565b80806104b29061088c565b915050610453565b5080915050919050565b610560848484846040516024016104de9493929190610953565b6040516020818303038152906040527fde68f20a000000000000000000000000000000000000000000000000000000007bffffffffffffffffffffffffffffffffffffffffffffffffffffffff19166020820180517bffffffffffffffffffffffffffffffffffffffffffffffffffffffff8381831617835250505050610566565b50505050565b61057d816105756105806105a1565b63ffffffff16565b50565b60006a636f6e736f6c652e6c6f679050600080835160208501845afa505050565b6105ac819050919050565b6105b46109b4565b565b600073ffffffffffffffffffffffffffffffffffffffff82169050919050565b60006105e1826105b6565b9050919050565b6105f1816105d6565b82525050565b600060208201905061060c60008301846105e8565b92915050565b6000604051905090565b600080fd5b6000819050919050565b61063481610621565b811461063f57600080fd5b50565b6000813590506106518161062b565b92915050565b60006020828403121561066d5761066c61061c565b5b600061067b84828501610642565b91505092915050565b60008115159050919050565b61069981610684565b82525050565b60006020820190506106b46000830184610690565b92915050565b600080fd5b6000601f19601f8301169050919050565b7f4e487b7100000000000000000000000000000000000000000000000000000000600052604160045260246000fd5b610708826106bf565b810181811067ffffffffffffffff82111715610727576107266106d0565b5b80604052505050565b600061073a610612565b905061074682826106ff565b919050565b600067ffffffffffffffff821115610766576107656106d0565b5b602082029050919050565b600080fd5b60006107896107848461074b565b610730565b905080602084028301858111156107a3576107a2610771565b5b835b818110156107cc57806107b88882610642565b8452602084019350506020810190506107a5565b5050509392505050565b600082601f8301126107eb576107ea6106ba565b5b60036107f8848285610776565b91505092915050565b6000606082840312156108175761081661061c565b5b6000610825848285016107d6565b91505092915050565b7f4e487b7100000000000000000000000000000000000000000000000000000000600052603260045260246000fd5b7f4e487b7100000000000000000000000000000000000000000000000000000000600052601160045260246000fd5b600061089782610621565b91507fffffffffffffffffffffffffffffffffffffffffffffffffffffffffffffffff82036108c9576108c861085d565b5b600182019050919050565b600081519050919050565b600082825260208201905092915050565b60005b8381101561090e5780820151818401526020810190506108f3565b60008484015250505050565b6000610925826108d4565b61092f81856108df565b935061093f8185602086016108f0565b610948816106bf565b840191505092915050565b6000608082019050818103600083015261096d818761091a565b90508181036020830152610981818661091a565b90508181036040830152610995818561091a565b905081810360608301526109a9818461091a565b905095945050505050565b7f4e487b7100000000000000000000000000000000000000000000000000000000600052605160045260246000fdfe76633120737461747573203a202573200a2076633220737461747573203a2025730a2076633320737461747573203a202573a26469706673582212207f0812bdf5993643abc85dcba75311c8b61fc358283ea9316feafa24e0db680264736f6c63430008120033",
			"opcodes": "PUSH1 0x80 PUSH1 0x40 MSTORE CALLVALUE DUP1 ISZERO PUSH2 0x10 JUMPI PUSH1 0x0 DUP1 REVERT JUMPDEST POP CALLER PUSH1 0x1 PUSH1 0x0 PUSH2 0x100 EXP DUP2 SLOAD DUP2 PUSH20 0xFFFFFFFFFFFFFFFFFFFFFFFFFFFFFFFFFFFFFFFF MUL NOT AND SWAP1 DUP4 PUSH20 0xFFFFFFFFFFFFFFFFFFFFFFFFFFFFFFFFFFFFFFFF AND MUL OR SWAP1 SSTORE POP PUSH2 0xA4B DUP1 PUSH2 0x61 PUSH1 0x0 CODECOPY PUSH1 0x0 RETURN INVALID PUSH1 0x80 PUSH1 0x40 MSTORE CALLVALUE DUP1 ISZERO PUSH2 0x10 JUMPI PUSH1 0x0 DUP1 REVERT JUMPDEST POP PUSH1 0x4 CALLDATASIZE LT PUSH2 0x62 JUMPI PUSH1 0x0 CALLDATALOAD PUSH1 0xE0 SHR DUP1 PUSH4 0xDE54B85 EQ PUSH2 0x67 JUMPI DUP1 PUSH4 0x1D143848 EQ PUSH2 0x71 JUMPI DUP1 PUSH4 0x48DB5336 EQ PUSH2 0x8F JUMPI DUP1 PUSH4 0x89CDFA6E EQ PUSH2 0xBF JUMPI DUP1 PUSH4 0xB0D2B15E EQ PUSH2 0xDB JUMPI DUP1 PUSH4 0xC3EED8E7 EQ PUSH2 0xE5 JUMPI JUMPDEST PUSH1 0x0 DUP1 REVERT JUMPDEST PUSH2 0x6F PUSH2 0x115 JUMP JUMPDEST STOP JUMPDEST PUSH2 0x79 PUSH2 0x117 JUMP JUMPDEST PUSH1 0x40 MLOAD PUSH2 0x86 SWAP2 SWAP1 PUSH2 0x5F7 JUMP JUMPDEST PUSH1 0x40 MLOAD DUP1 SWAP2 SUB SWAP1 RETURN JUMPDEST PUSH2 0xA9 PUSH1 0x4 DUP1 CALLDATASIZE SUB DUP2 ADD SWAP1 PUSH2 0xA4 SWAP2 SWAP1 PUSH2 0x657 JUMP JUMPDEST PUSH2 0x13D JUMP JUMPDEST PUSH1 0x40 MLOAD PUSH2 0xB6 SWAP2 SWAP1 PUSH2 0x69F JUMP JUMPDEST PUSH1 0x40 MLOAD DUP1 SWAP2 SUB SWAP1 RETURN JUMPDEST PUSH2 0xD9 PUSH1 0x4 DUP1 CALLDATASIZE SUB DUP2 ADD SWAP1 PUSH2 0xD4 SWAP2 SWAP1 PUSH2 0x801 JUMP JUMPDEST PUSH2 0x15D JUMP JUMPDEST STOP JUMPDEST PUSH2 0xE3 PUSH2 0x21C JUMP JUMPDEST STOP JUMPDEST PUSH2 0xFF PUSH1 0x4 DUP1 CALLDATASIZE SUB DUP2 ADD SWAP1 PUSH2 0xFA SWAP2 SWAP1 PUSH2 0x801 JUMP JUMPDEST PUSH2 0x449 JUMP JUMPDEST PUSH1 0x40 MLOAD PUSH2 0x10C SWAP2 SWAP1 PUSH2 0x69F JUMP JUMPDEST PUSH1 0x40 MLOAD DUP1 SWAP2 SUB SWAP1 RETURN JUMPDEST JUMP JUMPDEST PUSH1 0x1 PUSH1 0x0 SWAP1 SLOAD SWAP1 PUSH2 0x100 EXP SWAP1 DIV PUSH20 0xFFFFFFFFFFFFFFFFFFFFFFFFFFFFFFFFFFFFFFFF AND DUP2 JUMP JUMPDEST PUSH1 0x0 PUSH1 0x20 MSTORE DUP1 PUSH1 0x0 MSTORE PUSH1 0x40 PUSH1 0x0 KECCAK256 PUSH1 0x0 SWAP2 POP SLOAD SWAP1 PUSH2 0x100 EXP SWAP1 DIV PUSH1 0xFF AND DUP2 JUMP JUMPDEST PUSH1 0x1 PUSH1 0x0 SWAP1 SLOAD SWAP1 PUSH2 0x100 EXP SWAP1 DIV PUSH20 0xFFFFFFFFFFFFFFFFFFFFFFFFFFFFFFFFFFFFFFFF AND PUSH20 0xFFFFFFFFFFFFFFFFFFFFFFFFFFFFFFFFFFFFFFFF AND CALLER PUSH20 0xFFFFFFFFFFFFFFFFFFFFFFFFFFFFFFFFFFFFFFFF AND EQ PUSH2 0x1B7 JUMPI PUSH1 0x0 DUP1 REVERT JUMPDEST PUSH1 0x0 JUMPDEST PUSH1 0x3 DUP2 LT ISZERO PUSH2 0x218 JUMPI PUSH1 0x1 PUSH1 0x0 DUP1 DUP5 DUP5 PUSH1 0x3 DUP2 LT PUSH2 0x1DB JUMPI PUSH2 0x1DA PUSH2 0x82E JUMP JUMPDEST JUMPDEST PUSH1 0x20 MUL ADD MLOAD DUP2 MSTORE PUSH1 0x20 ADD SWAP1 DUP2 MSTORE PUSH1 0x20 ADD PUSH1 0x0 KECCAK256 PUSH1 0x0 PUSH2 0x100 EXP DUP2 SLOAD DUP2 PUSH1 0xFF MUL NOT AND SWAP1 DUP4 ISZERO ISZERO MUL OR SWAP1 SSTORE POP DUP1 DUP1 PUSH2 0x210 SWAP1 PUSH2 0x88C JUMP JUMPDEST SWAP2 POP POP PUSH2 0x1BA JUMP JUMPDEST POP POP JUMP JUMPDEST PUSH1 0x0 PUSH1 0x40 MLOAD DUP1 PUSH1 0x60 ADD PUSH1 0x40 MSTORE DUP1 PUSH1 0x1 DUP2 MSTORE PUSH1 0x20 ADD PUSH1 0x2 DUP2 MSTORE PUSH1 0x20 ADD PUSH1 0x3 DUP2 MSTORE POP SWAP1 POP PUSH1 0x0 PUSH1 0x40 MLOAD DUP1 PUSH1 0x60 ADD PUSH1 0x40 MSTORE DUP1 PUSH1 0x4 DUP2 MSTORE PUSH1 0x20 ADD PUSH1 0x5 DUP2 MSTORE PUSH1 0x20 ADD PUSH1 0x6 DUP2 MSTORE POP SWAP1 POP PUSH1 0x0 PUSH1 0x40 MLOAD DUP1 PUSH1 0x60 ADD PUSH1 0x40 MSTORE DUP1 PUSH1 0x7 DUP2 MSTORE PUSH1 0x20 ADD PUSH1 0x8 DUP2 MSTORE PUSH1 0x20 ADD PUSH1 0x9 DUP2 MSTORE POP SWAP1 POP PUSH2 0x28B DUP4 PUSH2 0x15D JUMP JUMPDEST PUSH2 0x294 DUP3 PUSH2 0x15D JUMP JUMPDEST PUSH1 0x0 PUSH2 0x29F DUP5 PUSH2 0x449 JUMP JUMPDEST PUSH2 0x2DE JUMPI PUSH1 0x40 MLOAD DUP1 PUSH1 0x40 ADD PUSH1 0x40 MSTORE DUP1 PUSH1 0xB DUP2 MSTORE PUSH1 0x20 ADD PUSH32 0x6E6F74207265766F6B6564000000000000000000000000000000000000000000 DUP2 MSTORE POP PUSH2 0x315 JUMP JUMPDEST PUSH1 0x40 MLOAD DUP1 PUSH1 0x40 ADD PUSH1 0x40 MSTORE DUP1 PUSH1 0x7 DUP2 MSTORE PUSH1 0x20 ADD PUSH32 0x7265766F6B656400000000000000000000000000000000000000000000000000 DUP2 MSTORE POP JUMPDEST SWAP1 POP PUSH1 0x0 PUSH2 0x322 DUP5 PUSH2 0x449 JUMP JUMPDEST PUSH2 0x361 JUMPI PUSH1 0x40 MLOAD DUP1 PUSH1 0x40 ADD PUSH1 0x40 MSTORE DUP1 PUSH1 0xB DUP2 MSTORE PUSH1 0x20 ADD PUSH32 0x6E6F74207265766F6B6564000000000000000000000000000000000000000000 DUP2 MSTORE POP PUSH2 0x398 JUMP JUMPDEST PUSH1 0x40 MLOAD DUP1 PUSH1 0x40 ADD PUSH1 0x40 MSTORE DUP1 PUSH1 0x7 DUP2 MSTORE PUSH1 0x20 ADD PUSH32 0x7265766F6B656400000000000000000000000000000000000000000000000000 DUP2 MSTORE POP JUMPDEST SWAP1 POP PUSH1 0x0 PUSH2 0x3A5 DUP5 PUSH2 0x449 JUMP JUMPDEST PUSH2 0x3E4 JUMPI PUSH1 0x40 MLOAD DUP1 PUSH1 0x40 ADD PUSH1 0x40 MSTORE DUP1 PUSH1 0xB DUP2 MSTORE PUSH1 0x20 ADD PUSH32 0x6E6F74207265766F6B6564000000000000000000000000000000000000000000 DUP2 MSTORE POP PUSH2 0x41B JUMP JUMPDEST PUSH1 0x40 MLOAD DUP1 PUSH1 0x40 ADD PUSH1 0x40 MSTORE DUP1 PUSH1 0x7 DUP2 MSTORE PUSH1 0x20 ADD PUSH32 0x7265766F6B656400000000000000000000000000000000000000000000000000 DUP2 MSTORE POP JUMPDEST SWAP1 POP PUSH2 0x441 PUSH1 0x40 MLOAD DUP1 PUSH1 0x60 ADD PUSH1 0x40 MSTORE DUP1 PUSH1 0x32 DUP2 MSTORE PUSH1 0x20 ADD PUSH2 0x9E4 PUSH1 0x32 SWAP2 CODECOPY DUP5 DUP5 DUP5 PUSH2 0x4C4 JUMP JUMPDEST POP POP POP POP POP POP JUMP JUMPDEST PUSH1 0x0 DUP1 PUSH1 0x0 SWAP1 POP PUSH1 0x0 JUMPDEST PUSH1 0x3 DUP2 LT ISZERO PUSH2 0x4BA JUMPI PUSH1 0x1 ISZERO ISZERO PUSH1 0x0 DUP1 DUP7 DUP5 PUSH1 0x3 DUP2 LT PUSH2 0x476 JUMPI PUSH2 0x475 PUSH2 0x82E JUMP JUMPDEST JUMPDEST PUSH1 0x20 MUL ADD MLOAD DUP2 MSTORE PUSH1 0x20 ADD SWAP1 DUP2 MSTORE PUSH1 0x20 ADD PUSH1 0x0 KECCAK256 PUSH1 0x0 SWAP1 SLOAD SWAP1 PUSH2 0x100 EXP SWAP1 DIV PUSH1 0xFF AND ISZERO ISZERO SUB PUSH2 0x4A7 JUMPI PUSH1 0x1 SWAP2 POP PUSH2 0x4BA JUMP JUMPDEST DUP1 DUP1 PUSH2 0x4B2 SWAP1 PUSH2 0x88C JUMP JUMPDEST SWAP2 POP POP PUSH2 0x453 JUMP JUMPDEST POP DUP1 SWAP2 POP POP SWAP2 SWAP1 POP JUMP JUMPDEST PUSH2 0x560 DUP5 DUP5 DUP5 DUP5 PUSH1 0x40 MLOAD PUSH1 0x24 ADD PUSH2 0x4DE SWAP5 SWAP4 SWAP3 SWAP2 SWAP1 PUSH2 0x953 JUMP JUMPDEST PUSH1 0x40 MLOAD PUSH1 0x20 DUP2 DUP4 SUB SUB DUP2 MSTORE SWAP1 PUSH1 0x40 MSTORE PUSH32 0xDE68F20A00000000000000000000000000000000000000000000000000000000 PUSH28 0xFFFFFFFFFFFFFFFFFFFFFFFFFFFFFFFFFFFFFFFFFFFFFFFFFFFFFFFF NOT AND PUSH1 0x20 DUP3 ADD DUP1 MLOAD PUSH28 0xFFFFFFFFFFFFFFFFFFFFFFFFFFFFFFFFFFFFFFFFFFFFFFFFFFFFFFFF DUP4 DUP2 DUP4 AND OR DUP4 MSTORE POP POP POP POP PUSH2 0x566 JUMP JUMPDEST POP POP POP POP JUMP JUMPDEST PUSH2 0x57D DUP2 PUSH2 0x575 PUSH2 0x580 PUSH2 0x5A1 JUMP JUMPDEST PUSH4 0xFFFFFFFF AND JUMP JUMPDEST POP JUMP JUMPDEST PUSH1 0x0 PUSH11 0x636F6E736F6C652E6C6F67 SWAP1 POP PUSH1 0x0 DUP1 DUP4 MLOAD PUSH1 0x20 DUP6 ADD DUP5 GAS STATICCALL POP POP POP JUMP JUMPDEST PUSH2 0x5AC DUP2 SWAP1 POP SWAP2 SWAP1 POP JUMP JUMPDEST PUSH2 0x5B4 PUSH2 0x9B4 JUMP JUMPDEST JUMP JUMPDEST PUSH1 0x0 PUSH20 0xFFFFFFFFFFFFFFFFFFFFFFFFFFFFFFFFFFFFFFFF DUP3 AND SWAP1 POP SWAP2 SWAP1 POP JUMP JUMPDEST PUSH1 0x0 PUSH2 0x5E1 DUP3 PUSH2 0x5B6 JUMP JUMPDEST SWAP1 POP SWAP2 SWAP1 POP JUMP JUMPDEST PUSH2 0x5F1 DUP2 PUSH2 0x5D6 JUMP JUMPDEST DUP3 MSTORE POP POP JUMP JUMPDEST PUSH1 0x0 PUSH1 0x20 DUP3 ADD SWAP1 POP PUSH2 0x60C PUSH1 0x0 DUP4 ADD DUP5 PUSH2 0x5E8 JUMP JUMPDEST SWAP3 SWAP2 POP POP JUMP JUMPDEST PUSH1 0x0 PUSH1 0x40 MLOAD SWAP1 POP SWAP1 JUMP JUMPDEST PUSH1 0x0 DUP1 REVERT JUMPDEST PUSH1 0x0 DUP2 SWAP1 POP SWAP2 SWAP1 POP JUMP JUMPDEST PUSH2 0x634 DUP2 PUSH2 0x621 JUMP JUMPDEST DUP2 EQ PUSH2 0x63F JUMPI PUSH1 0x0 DUP1 REVERT JUMPDEST POP JUMP JUMPDEST PUSH1 0x0 DUP2 CALLDATALOAD SWAP1 POP PUSH2 0x651 DUP2 PUSH2 0x62B JUMP JUMPDEST SWAP3 SWAP2 POP POP JUMP JUMPDEST PUSH1 0x0 PUSH1 0x20 DUP3 DUP5 SUB SLT ISZERO PUSH2 0x66D JUMPI PUSH2 0x66C PUSH2 0x61C JUMP JUMPDEST JUMPDEST PUSH1 0x0 PUSH2 0x67B DUP5 DUP3 DUP6 ADD PUSH2 0x642 JUMP JUMPDEST SWAP2 POP POP SWAP3 SWAP2 POP POP JUMP JUMPDEST PUSH1 0x0 DUP2 ISZERO ISZERO SWAP1 POP SWAP2 SWAP1 POP JUMP JUMPDEST PUSH2 0x699 DUP2 PUSH2 0x684 JUMP JUMPDEST DUP3 MSTORE POP POP JUMP JUMPDEST PUSH1 0x0 PUSH1 0x20 DUP3 ADD SWAP1 POP PUSH2 0x6B4 PUSH1 0x0 DUP4 ADD DUP5 PUSH2 0x690 JUMP JUMPDEST SWAP3 SWAP2 POP POP JUMP JUMPDEST PUSH1 0x0 DUP1 REVERT JUMPDEST PUSH1 0x0 PUSH1 0x1F NOT PUSH1 0x1F DUP4 ADD AND SWAP1 POP SWAP2 SWAP1 POP JUMP JUMPDEST PUSH32 0x4E487B7100000000000000000000000000000000000000000000000000000000 PUSH1 0x0 MSTORE PUSH1 0x41 PUSH1 0x4 MSTORE PUSH1 0x24 PUSH1 0x0 REVERT JUMPDEST PUSH2 0x708 DUP3 PUSH2 0x6BF JUMP JUMPDEST DUP2 ADD DUP2 DUP2 LT PUSH8 0xFFFFFFFFFFFFFFFF DUP3 GT OR ISZERO PUSH2 0x727 JUMPI PUSH2 0x726 PUSH2 0x6D0 JUMP JUMPDEST JUMPDEST DUP1 PUSH1 0x40 MSTORE POP POP POP JUMP JUMPDEST PUSH1 0x0 PUSH2 0x73A PUSH2 0x612 JUMP JUMPDEST SWAP1 POP PUSH2 0x746 DUP3 DUP3 PUSH2 0x6FF JUMP JUMPDEST SWAP2 SWAP1 POP JUMP JUMPDEST PUSH1 0x0 PUSH8 0xFFFFFFFFFFFFFFFF DUP3 GT ISZERO PUSH2 0x766 JUMPI PUSH2 0x765 PUSH2 0x6D0 JUMP JUMPDEST JUMPDEST PUSH1 0x20 DUP3 MUL SWAP1 POP SWAP2 SWAP1 POP JUMP JUMPDEST PUSH1 0x0 DUP1 REVERT JUMPDEST PUSH1 0x0 PUSH2 0x789 PUSH2 0x784 DUP5 PUSH2 0x74B JUMP JUMPDEST PUSH2 0x730 JUMP JUMPDEST SWAP1 POP DUP1 PUSH1 0x20 DUP5 MUL DUP4 ADD DUP6 DUP2 GT ISZERO PUSH2 0x7A3 JUMPI PUSH2 0x7A2 PUSH2 0x771 JUMP JUMPDEST JUMPDEST DUP4 JUMPDEST DUP2 DUP2 LT ISZERO PUSH2 0x7CC JUMPI DUP1 PUSH2 0x7B8 DUP9 DUP3 PUSH2 0x642 JUMP JUMPDEST DUP5 MSTORE PUSH1 0x20 DUP5 ADD SWAP4 POP POP PUSH1 0x20 DUP2 ADD SWAP1 POP PUSH2 0x7A5 JUMP JUMPDEST POP POP POP SWAP4 SWAP3 POP POP POP JUMP JUMPDEST PUSH1 0x0 DUP3 PUSH1 0x1F DUP4 ADD SLT PUSH2 0x7EB JUMPI PUSH2 0x7EA PUSH2 0x6BA JUMP JUMPDEST JUMPDEST PUSH1 0x3 PUSH2 0x7F8 DUP5 DUP3 DUP6 PUSH2 0x776 JUMP JUMPDEST SWAP2 POP POP SWAP3 SWAP2 POP POP JUMP JUMPDEST PUSH1 0x0 PUSH1 0x60 DUP3 DUP5 SUB SLT ISZERO PUSH2 0x817 JUMPI PUSH2 0x816 PUSH2 0x61C JUMP JUMPDEST JUMPDEST PUSH1 0x0 PUSH2 0x825 DUP5 DUP3 DUP6 ADD PUSH2 0x7D6 JUMP JUMPDEST SWAP2 POP POP SWAP3 SWAP2 POP POP JUMP JUMPDEST PUSH32 0x4E487B7100000000000000000000000000000000000000000000000000000000 PUSH1 0x0 MSTORE PUSH1 0x32 PUSH1 0x4 MSTORE PUSH1 0x24 PUSH1 0x0 REVERT JUMPDEST PUSH32 0x4E487B7100000000000000000000000000000000000000000000000000000000 PUSH1 0x0 MSTORE PUSH1 0x11 PUSH1 0x4 MSTORE PUSH1 0x24 PUSH1 0x0 REVERT JUMPDEST PUSH1 0x0 PUSH2 0x897 DUP3 PUSH2 0x621 JUMP JUMPDEST SWAP2 POP PUSH32 0xFFFFFFFFFFFFFFFFFFFFFFFFFFFFFFFFFFFFFFFFFFFFFFFFFFFFFFFFFFFFFFFF DUP3 SUB PUSH2 0x8C9 JUMPI PUSH2 0x8C8 PUSH2 0x85D JUMP JUMPDEST JUMPDEST PUSH1 0x1 DUP3 ADD SWAP1 POP SWAP2 SWAP1 POP JUMP JUMPDEST PUSH1 0x0 DUP2 MLOAD SWAP1 POP SWAP2 SWAP1 POP JUMP JUMPDEST PUSH1 0x0 DUP3 DUP3 MSTORE PUSH1 0x20 DUP3 ADD SWAP1 POP SWAP3 SWAP2 POP POP JUMP JUMPDEST PUSH1 0x0 JUMPDEST DUP4 DUP2 LT ISZERO PUSH2 0x90E JUMPI DUP1 DUP3 ADD MLOAD DUP2 DUP5 ADD MSTORE PUSH1 0x20 DUP2 ADD SWAP1 POP PUSH2 0x8F3 JUMP JUMPDEST PUSH1 0x0 DUP5 DUP5 ADD MSTORE POP POP POP POP JUMP JUMPDEST PUSH1 0x0 PUSH2 0x925 DUP3 PUSH2 0x8D4 JUMP JUMPDEST PUSH2 0x92F DUP2 DUP6 PUSH2 0x8DF JUMP JUMPDEST SWAP4 POP PUSH2 0x93F DUP2 DUP6 PUSH1 0x20 DUP7 ADD PUSH2 0x8F0 JUMP JUMPDEST PUSH2 0x948 DUP2 PUSH2 0x6BF JUMP JUMPDEST DUP5 ADD SWAP2 POP POP SWAP3 SWAP2 POP POP JUMP JUMPDEST PUSH1 0x0 PUSH1 0x80 DUP3 ADD SWAP1 POP DUP2 DUP2 SUB PUSH1 0x0 DUP4 ADD MSTORE PUSH2 0x96D DUP2 DUP8 PUSH2 0x91A JUMP JUMPDEST SWAP1 POP DUP2 DUP2 SUB PUSH1 0x20 DUP4 ADD MSTORE PUSH2 0x981 DUP2 DUP7 PUSH2 0x91A JUMP JUMPDEST SWAP1 POP DUP2 DUP2 SUB PUSH1 0x40 DUP4 ADD MSTORE PUSH2 0x995 DUP2 DUP6 PUSH2 0x91A JUMP JUMPDEST SWAP1 POP DUP2 DUP2 SUB PUSH1 0x60 DUP4 ADD MSTORE PUSH2 0x9A9 DUP2 DUP5 PUSH2 0x91A JUMP JUMPDEST SWAP1 POP SWAP6 SWAP5 POP POP POP POP POP JUMP JUMPDEST PUSH32 0x4E487B7100000000000000000000000000000000000000000000000000000000 PUSH1 0x0 MSTORE PUSH1 0x51 PUSH1 0x4 MSTORE PUSH1 0x24 PUSH1 0x0 REVERT INVALID PUSH23 0x633120737461747573203A202573200A20766332207374 PUSH2 0x7475 PUSH20 0x203A2025730A2076633320737461747573203A20 0x25 PUSH20 0xA26469706673582212207F0812BDF5993643ABC8 0x5D 0xCB 0xA7 MSTORE8 GT 0xC8 0xB6 0x1F 0xC3 PC 0x28 RETURNDATACOPY 0xA9 BALANCE PUSH16 0xEAFA24E0DB680264736F6C6343000812 STOP CALLER "
		},
		"gasEstimates": {
			"creation": {
				"codeDepositCost": "527000",
				"executionCost": "24828",
				"totalCost": "551828"
			},
			"external": {
				"bloomFilter(uint256)": "2818",
				"checkRevocationStatusInBloomFilter(uint256[3])": "infinite",
				"issuer()": "2514",
				"registerIssuers()": "122",
				"revokeInBloomFilter(uint256[3])": "infinite",
				"testRevocation()": "infinite"
			}
		},
		"methodIdentifiers": {
			"bloomFilter(uint256)": "48db5336",
			"checkRevocationStatusInBloomFilter(uint256[3])": "c3eed8e7",
			"issuer()": "1d143848",
			"registerIssuers()": "0de54b85",
			"revokeInBloomFilter(uint256[3])": "89cdfa6e",
			"testRevocation()": "b0d2b15e"
		}
	},
	"abi": [
		{
			"inputs": [],
			"stateMutability": "nonpayable",
			"type": "constructor"
		},
		{
			"inputs": [
				{
					"internalType": "uint256",
					"name": "",
					"type": "uint256"
				}
			],
			"name": "bloomFilter",
			"outputs": [
				{
					"internalType": "bool",
					"name": "",
					"type": "bool"
				}
			],
			"stateMutability": "view",
			"type": "function"
		},
		{
			"inputs": [
				{
					"internalType": "uint256[3]",
					"name": "indexes",
					"type": "uint256[3]"
				}
			],
			"name": "checkRevocationStatusInBloomFilter",
			"outputs": [
				{
					"internalType": "bool",
					"name": "",
					"type": "bool"
				}
			],
			"stateMutability": "view",
			"type": "function"
		},
		{
			"inputs": [],
			"name": "issuer",
			"outputs": [
				{
					"internalType": "address",
					"name": "",
					"type": "address"
				}
			],
			"stateMutability": "view",
			"type": "function"
		},
		{
			"inputs": [],
			"name": "registerIssuers",
			"outputs": [],
			"stateMutability": "nonpayable",
			"type": "function"
		},
		{
			"inputs": [
				{
					"internalType": "uint256[3]",
					"name": "indexes",
					"type": "uint256[3]"
				}
			],
			"name": "revokeInBloomFilter",
			"outputs": [],
			"stateMutability": "nonpayable",
			"type": "function"
		},
		{
			"inputs": [],
			"name": "testRevocation",
			"outputs": [],
			"stateMutability": "nonpayable",
			"type": "function"
		}
	]
}